{
  "abi": [
    {
      "type": "constructor",
      "inputs": [
        {
          "name": "_maishaToken",
          "type": "address",
          "internalType": "address"
        },
        {
          "name": "_personalInfo",
          "type": "address",
          "internalType": "address"
        },
        {
          "name": "_medicalHistory",
          "type": "address",
          "internalType": "address"
        },
        {
          "name": "_currentHealth",
          "type": "address",
          "internalType": "address"
        },
        {
          "name": "_treatmentRecords",
          "type": "address",
          "internalType": "address"
        },
        {
          "name": "_roleManager",
          "type": "address",
          "internalType": "address"
        },
        {
          "name": "_temporaryAccess",
          "type": "address",
          "internalType": "address"
        },
        {
          "name": "_updateApproval",
          "type": "address",
          "internalType": "address"
        }
      ],
      "stateMutability": "nonpayable"
    },
    {
      "type": "function",
      "name": "DEFAULT_ADMIN_ROLE",
      "inputs": [],
      "outputs": [
        {
          "name": "",
          "type": "bytes32",
          "internalType": "bytes32"
        }
      ],
      "stateMutability": "view"
    },
    {
      "type": "function",
      "name": "approveUpdate",
      "inputs": [
        {
          "name": "_updateId",
          "type": "bytes32",
          "internalType": "bytes32"
        }
      ],
      "outputs": [],
      "stateMutability": "nonpayable"
    },
    {
      "type": "function",
      "name": "checkRole",
      "inputs": [
        {
          "name": "account",
          "type": "address",
          "internalType": "address"
        }
      ],
      "outputs": [
        {
          "name": "",
          "type": "string",
          "internalType": "string"
        }
      ],
      "stateMutability": "view"
    },
    {
      "type": "function",
      "name": "currentHealth",
      "inputs": [],
      "outputs": [
        {
          "name": "",
          "type": "address",
          "internalType": "contract CurrentHealth"
        }
      ],
      "stateMutability": "view"
    },
    {
      "type": "function",
      "name": "dataMonetizationOptIn",
      "inputs": [
        {
          "name": "",
          "type": "address",
          "internalType": "address"
        }
      ],
      "outputs": [
        {
          "name": "",
          "type": "bool",
          "internalType": "bool"
        }
      ],
      "stateMutability": "view"
    },
    {
      "type": "function",
      "name": "getCurrentHealthDoctor",
      "inputs": [
        {
          "name": "_patient",
          "type": "address",
          "internalType": "address"
        }
      ],
      "outputs": [
        {
          "name": "",
          "type": "string",
          "internalType": "string"
        },
        {
          "name": "",
          "type": "uint256",
          "internalType": "uint256"
        }
      ],
      "stateMutability": "view"
    },
    {
      "type": "function",
      "name": "getCurrentHealthPatient",
      "inputs": [
        {
          "name": "_patient",
          "type": "address",
          "internalType": "address"
        }
      ],
      "outputs": [
        {
          "name": "",
          "type": "string",
          "internalType": "string"
        },
        {
          "name": "",
          "type": "uint256",
          "internalType": "uint256"
        }
      ],
      "stateMutability": "view"
    },
    {
      "type": "function",
      "name": "getMedicalHistoryDoctor",
      "inputs": [
        {
          "name": "_patient",
          "type": "address",
          "internalType": "address"
        }
      ],
      "outputs": [
        {
          "name": "",
          "type": "string",
          "internalType": "string"
        },
        {
          "name": "",
          "type": "uint256",
          "internalType": "uint256"
        }
      ],
      "stateMutability": "view"
    },
    {
      "type": "function",
      "name": "getMedicalHistoryPatient",
      "inputs": [
        {
          "name": "_patient",
          "type": "address",
          "internalType": "address"
        }
      ],
      "outputs": [
        {
          "name": "",
          "type": "string",
          "internalType": "string"
        },
        {
          "name": "",
          "type": "uint256",
          "internalType": "uint256"
        }
      ],
      "stateMutability": "view"
    },
    {
      "type": "function",
      "name": "getPersonalInfo",
      "inputs": [
        {
          "name": "_patient",
          "type": "address",
          "internalType": "address"
        }
      ],
      "outputs": [
        {
          "name": "",
          "type": "string",
          "internalType": "string"
        },
        {
          "name": "",
          "type": "uint256",
          "internalType": "uint256"
        }
      ],
      "stateMutability": "view"
    },
    {
      "type": "function",
      "name": "getRoleAdmin",
      "inputs": [
        {
          "name": "role",
          "type": "bytes32",
          "internalType": "bytes32"
        }
      ],
      "outputs": [
        {
          "name": "",
          "type": "bytes32",
          "internalType": "bytes32"
        }
      ],
      "stateMutability": "view"
    },
    {
      "type": "function",
      "name": "getTreatmentRecordsDoctor",
      "inputs": [
        {
          "name": "_patient",
          "type": "address",
          "internalType": "address"
        }
      ],
      "outputs": [
        {
          "name": "",
          "type": "string[]",
          "internalType": "string[]"
        },
        {
          "name": "",
          "type": "uint256[]",
          "internalType": "uint256[]"
        }
      ],
      "stateMutability": "view"
    },
    {
      "type": "function",
      "name": "getTreatmentRecordsPatient",
      "inputs": [
        {
          "name": "_patient",
          "type": "address",
          "internalType": "address"
        }
      ],
      "outputs": [
        {
          "name": "",
          "type": "string[]",
          "internalType": "string[]"
        },
        {
          "name": "",
          "type": "uint256[]",
          "internalType": "uint256[]"
        }
      ],
      "stateMutability": "view"
    },
    {
      "type": "function",
      "name": "grantRole",
      "inputs": [
        {
          "name": "role",
          "type": "bytes32",
          "internalType": "bytes32"
        },
        {
          "name": "account",
          "type": "address",
          "internalType": "address"
        }
      ],
      "outputs": [],
      "stateMutability": "nonpayable"
    },
    {
      "type": "function",
      "name": "hasRole",
      "inputs": [
        {
          "name": "role",
          "type": "bytes32",
          "internalType": "bytes32"
        },
        {
          "name": "account",
          "type": "address",
          "internalType": "address"
        }
      ],
      "outputs": [
        {
          "name": "",
          "type": "bool",
          "internalType": "bool"
        }
      ],
      "stateMutability": "view"
    },
    {
      "type": "function",
      "name": "initiateCurrentHealthUpdate",
      "inputs": [
        {
          "name": "_patient",
          "type": "address",
          "internalType": "address"
        },
        {
          "name": "_dataHash",
          "type": "string",
          "internalType": "string"
        }
      ],
      "outputs": [],
      "stateMutability": "nonpayable"
    },
    {
      "type": "function",
      "name": "initiateMedicalHistoryUpdate",
      "inputs": [
        {
          "name": "_patient",
          "type": "address",
          "internalType": "address"
        },
        {
          "name": "_dataHash",
          "type": "string",
          "internalType": "string"
        }
      ],
      "outputs": [],
      "stateMutability": "nonpayable"
    },
    {
      "type": "function",
      "name": "initiatePersonalInfoUpdate",
      "inputs": [
        {
          "name": "_patient",
          "type": "address",
          "internalType": "address"
        },
        {
          "name": "_dataHash",
          "type": "string",
          "internalType": "string"
        }
      ],
      "outputs": [],
      "stateMutability": "nonpayable"
    },
    {
      "type": "function",
      "name": "initiateTreatmentRecordAdd",
      "inputs": [
        {
          "name": "_patient",
          "type": "address",
          "internalType": "address"
        },
        {
          "name": "_dataHash",
          "type": "string",
          "internalType": "string"
        }
      ],
      "outputs": [],
      "stateMutability": "nonpayable"
    },
    {
      "type": "function",
      "name": "maishaToken",
      "inputs": [],
      "outputs": [
        {
          "name": "",
          "type": "address",
          "internalType": "contract MaishaToken"
        }
      ],
      "stateMutability": "view"
    },
    {
      "type": "function",
      "name": "medicalHistory",
      "inputs": [],
      "outputs": [
        {
          "name": "",
          "type": "address",
          "internalType": "contract MedicalHistory"
        }
      ],
      "stateMutability": "view"
    },
    {
      "type": "function",
      "name": "optInDataMonetization",
      "inputs": [],
      "outputs": [],
      "stateMutability": "nonpayable"
    },
    {
      "type": "function",
      "name": "owner",
      "inputs": [],
      "outputs": [
        {
          "name": "",
          "type": "address",
          "internalType": "address"
        }
      ],
      "stateMutability": "view"
    },
    {
      "type": "function",
      "name": "personalInfo",
      "inputs": [],
      "outputs": [
        {
          "name": "",
          "type": "address",
          "internalType": "contract PersonalInfo"
        }
      ],
      "stateMutability": "view"
    },
    {
      "type": "function",
      "name": "renounceOwnership",
      "inputs": [],
      "outputs": [],
      "stateMutability": "nonpayable"
    },
    {
      "type": "function",
      "name": "renounceRole",
      "inputs": [
        {
          "name": "role",
          "type": "bytes32",
          "internalType": "bytes32"
        },
        {
          "name": "callerConfirmation",
          "type": "address",
          "internalType": "address"
        }
      ],
      "outputs": [],
      "stateMutability": "nonpayable"
    },
    {
      "type": "function",
      "name": "revokeRole",
      "inputs": [
        {
          "name": "role",
          "type": "bytes32",
          "internalType": "bytes32"
        },
        {
          "name": "account",
          "type": "address",
          "internalType": "address"
        }
      ],
      "outputs": [],
      "stateMutability": "nonpayable"
    },
    {
      "type": "function",
      "name": "roleManager",
      "inputs": [],
      "outputs": [
        {
          "name": "",
          "type": "address",
          "internalType": "contract RoleManager"
        }
      ],
      "stateMutability": "view"
    },
    {
      "type": "function",
      "name": "supportsInterface",
      "inputs": [
        {
          "name": "interfaceId",
          "type": "bytes4",
          "internalType": "bytes4"
        }
      ],
      "outputs": [
        {
          "name": "",
          "type": "bool",
          "internalType": "bool"
        }
      ],
      "stateMutability": "view"
    },
    {
      "type": "function",
      "name": "temporaryAccess",
      "inputs": [],
      "outputs": [
        {
          "name": "",
          "type": "address",
          "internalType": "contract TemporaryAccess"
        }
      ],
      "stateMutability": "view"
    },
    {
      "type": "function",
      "name": "transferOwnership",
      "inputs": [
        {
          "name": "newOwner",
          "type": "address",
          "internalType": "address"
        }
      ],
      "outputs": [],
      "stateMutability": "nonpayable"
    },
    {
      "type": "function",
      "name": "treatmentRecords",
      "inputs": [],
      "outputs": [
        {
          "name": "",
          "type": "address",
          "internalType": "contract TreatmentRecords"
        }
      ],
      "stateMutability": "view"
    },
    {
      "type": "function",
      "name": "updateApproval",
      "inputs": [],
      "outputs": [
        {
          "name": "",
          "type": "address",
          "internalType": "contract UpdateApproval"
        }
      ],
      "stateMutability": "view"
    },
    {
      "type": "event",
      "name": "DataMonetizationOptIn",
      "inputs": [
        {
          "name": "patient",
          "type": "address",
          "indexed": true,
          "internalType": "address"
        }
      ],
      "anonymous": false
    },
    {
      "type": "event",
      "name": "DataUpdateInitiated",
      "inputs": [
        {
          "name": "patient",
          "type": "address",
          "indexed": true,
          "internalType": "address"
        },
        {
          "name": "initiator",
          "type": "address",
          "indexed": true,
          "internalType": "address"
        },
        {
          "name": "dataType",
          "type": "string",
          "indexed": false,
          "internalType": "string"
        },
        {
          "name": "updateId",
          "type": "bytes32",
          "indexed": false,
          "internalType": "bytes32"
        }
      ],
      "anonymous": false
    },
    {
      "type": "event",
      "name": "OwnershipTransferred",
      "inputs": [
        {
          "name": "previousOwner",
          "type": "address",
          "indexed": true,
          "internalType": "address"
        },
        {
          "name": "newOwner",
          "type": "address",
          "indexed": true,
          "internalType": "address"
        }
      ],
      "anonymous": false
    },
    {
      "type": "event",
      "name": "RoleAdminChanged",
      "inputs": [
        {
          "name": "role",
          "type": "bytes32",
          "indexed": true,
          "internalType": "bytes32"
        },
        {
          "name": "previousAdminRole",
          "type": "bytes32",
          "indexed": true,
          "internalType": "bytes32"
        },
        {
          "name": "newAdminRole",
          "type": "bytes32",
          "indexed": true,
          "internalType": "bytes32"
        }
      ],
      "anonymous": false
    },
    {
      "type": "event",
      "name": "RoleGranted",
      "inputs": [
        {
          "name": "role",
          "type": "bytes32",
          "indexed": true,
          "internalType": "bytes32"
        },
        {
          "name": "account",
          "type": "address",
          "indexed": true,
          "internalType": "address"
        },
        {
          "name": "sender",
          "type": "address",
          "indexed": true,
          "internalType": "address"
        }
      ],
      "anonymous": false
    },
    {
      "type": "event",
      "name": "RoleRevoked",
      "inputs": [
        {
          "name": "role",
          "type": "bytes32",
          "indexed": true,
          "internalType": "bytes32"
        },
        {
          "name": "account",
          "type": "address",
          "indexed": true,
          "internalType": "address"
        },
        {
          "name": "sender",
          "type": "address",
          "indexed": true,
          "internalType": "address"
        }
      ],
      "anonymous": false
    },
    {
      "type": "error",
      "name": "AccessControlBadConfirmation",
      "inputs": []
    },
    {
      "type": "error",
      "name": "AccessControlUnauthorizedAccount",
      "inputs": [
        {
          "name": "account",
          "type": "address",
          "internalType": "address"
        },
        {
          "name": "neededRole",
          "type": "bytes32",
          "internalType": "bytes32"
        }
      ]
    },
    {
      "type": "error",
      "name": "AlreadyOptedIn",
      "inputs": []
    },
    {
      "type": "error",
      "name": "InvalidAddress",
      "inputs": []
    },
    {
      "type": "error",
      "name": "NotAuthorized",
      "inputs": []
    },
    {
      "type": "error",
      "name": "OwnableInvalidOwner",
      "inputs": [
        {
          "name": "owner",
          "type": "address",
          "internalType": "address"
        }
      ]
    },
    {
      "type": "error",
      "name": "OwnableUnauthorizedAccount",
      "inputs": [
        {
          "name": "account",
          "type": "address",
          "internalType": "address"
        }
      ]
    }
  ],
  "bytecode": {
    "object": "0x61018060405234801561001157600080fd5b506040516126fa3803806126fa83398101604081905261003091610275565b338061005657604051631e4fbdf760e01b81526000600482015260240160405180910390fd5b61005f8161015b565b506001600160a01b038816158061007d57506001600160a01b038716155b8061008f57506001600160a01b038616155b806100a157506001600160a01b038516155b806100b357506001600160a01b038416155b806100c557506001600160a01b038316155b806100d757506001600160a01b038216155b806100e957506001600160a01b038116155b156101075760405163e6c4247b60e01b815260040160405180910390fd5b6001600160a01b0380891660805287811660a05286811660c05285811660e05284811661010052838116610120528281166101405281166101605261014d6000336101ad565b50505050505050505061030c565b600180546001600160a01b038381166001600160a01b0319831681179093556040519116919082907f8be0079c531659141344cd1fd0a4f28419497f9722a3daafe3b4186f6b6457e090600090a35050565b6000828152602081815260408083206001600160a01b038516845290915281205460ff1661024f576000838152602081815260408083206001600160a01b03861684529091529020805460ff191660011790556102073390565b6001600160a01b0316826001600160a01b0316847f2f8788117e7eff1d82e926ec794901d17c78024a50270940304540a733656f0d60405160405180910390a4506001610253565b5060005b92915050565b80516001600160a01b038116811461027057600080fd5b919050565b600080600080600080600080610100898b03121561029257600080fd5b61029b89610259565b97506102a960208a01610259565b96506102b760408a01610259565b95506102c560608a01610259565b94506102d360808a01610259565b93506102e160a08a01610259565b92506102ef60c08a01610259565b91506102fd60e08a01610259565b90509295985092959890939650565b60805160a05160c05160e051610100516101205161014051610160516122a961045160003960008181610553015261093d0152600081816104a50152818161080701528181610c560152611920015260008181610204015281816106b0015281816106df01528181610aff01528181610b2e01528181610edb01528181610f0a01528181611022015281816110510152818161116a01528181611199015281816112b5015281816112e40152818161142501528181611454015281816117c901526117f801526000818161031f01528181610d83015281816119c70152611b410152600081816104cc015281816105c6015281816108ae0152610ea801526000818161045b015281816109e901528181610cfd01526116a50152600081816104f3015281816116ee0152611ac70152600081816102a101526115c801526122a96000f3fe608060405234801561001057600080fd5b50600436106101fa5760003560e01c80639bdff2c61161011a578063e0a4c8d6116100ad578063f2dbf12e1161007c578063f2dbf12e146104ee578063f2fde38b14610515578063f5d7862514610528578063f7447e251461053b578063f926197e1461054e57600080fd5b8063e0a4c8d614610456578063ec8b63281461047d578063f1abc2d3146104a0578063f1ccfc91146104c757600080fd5b8063c68537b9116100e9578063c68537b9146103fc578063cb171a841461040f578063d458cfec14610422578063d547741f1461044357600080fd5b80639bdff2c6146103b9578063a0d7823e146103cc578063a217fddf146103ec578063b5de6074146103f457600080fd5b80633224aea511610192578063715018a611610161578063715018a61461037a5780638da5cb5b1461038257806391d14854146103935780639a2c02c7146103a657600080fd5b80633224aea51461031a57806334fda57c1461034157806336568abe14610354578063378cb0be1461036757600080fd5b8063079072ac116101ce578063079072ac1461029c578063246f03ea146102c3578063248a9ca3146102d65780632f2ff15d1461030757600080fd5b8062435da5146101ff57806301ffc9a71461024357806304542f231461026657806305a4cfff1461027b575b600080fd5b6102267f000000000000000000000000000000000000000000000000000000000000000081565b6040516001600160a01b0390911681526020015b60405180910390f35b610256610251366004611d33565b610575565b604051901515815260200161023a565b610279610274366004611dea565b6105ac565b005b61028e610289366004611e7b565b6106aa565b60405161023a929190611ee6565b6102267f000000000000000000000000000000000000000000000000000000000000000081565b6102796102d1366004611f08565b610927565b6102f96102e4366004611f08565b60009081526020819052604090206001015490565b60405190815260200161023a565b610279610315366004611f21565b6109a4565b6102267f000000000000000000000000000000000000000000000000000000000000000081565b61027961034f366004611dea565b6109cf565b610279610362366004611f21565b610ac1565b61028e610375366004611e7b565b610af9565b610279610d2c565b6001546001600160a01b0316610226565b6102566103a1366004611f21565b610d40565b6102796103b4366004611dea565b610d69565b61028e6103c7366004611e7b565b610e5c565b6103df6103da366004611e7b565b610ed7565b60405161023a9190611f4d565b6102f9600081565b610279611423565b61028e61040a366004611e7b565b611659565b61027961041d366004611dea565b6116d4565b610435610430366004611e7b565b6117c4565b60405161023a929190611f60565b610279610451366004611f21565b611a37565b6102267f000000000000000000000000000000000000000000000000000000000000000081565b61025661048b366004611e7b565b60026020526000908152604090205460ff1681565b6102267f000000000000000000000000000000000000000000000000000000000000000081565b6102267f000000000000000000000000000000000000000000000000000000000000000081565b6102267f000000000000000000000000000000000000000000000000000000000000000081565b610279610523366004611e7b565b611a5c565b61028e610536366004611e7b565b611a9f565b610435610549366004611e7b565b611af6565b6102267f000000000000000000000000000000000000000000000000000000000000000081565b60006001600160e01b03198216637965db0b60e01b14806105a657506301ffc9a760e01b6001600160e01b03198316145b92915050565b60405163fe5b170560e01b81526000906001600160a01b037f0000000000000000000000000000000000000000000000000000000000000000169063fe5b1705906105fd9086908690600401611ffb565b6020604051808303816000875af115801561061c573d6000803e3d6000fd5b505050506040513d601f19601f820116820180604052508101906106409190612027565b9050336001600160a01b0316836001600160a01b03166000805160206122548339815191528360405161069d91906040808252600d908201526c086eae4e4cadce890cac2d8e8d609b1b6060820152602081019190915260800190565b60405180910390a3505050565b606060007f00000000000000000000000000000000000000000000000000000000000000006001600160a01b03166391d148547f00000000000000000000000000000000000000000000000000000000000000006001600160a01b031663fec331f26040518163ffffffff1660e01b8152600401602060405180830381865afa15801561073b573d6000803e3d6000fd5b505050506040513d601f19601f8201168201806040525081019061075f9190612027565b6040516001600160e01b031960e084901b1681526004810191909152336024820152604401602060405180830381865afa1580156107a1573d6000803e3d6000fd5b505050506040513d601f19601f820116820180604052508101906107c59190612040565b6107e25760405163ea8e4eb560e01b815260040160405180910390fd5b604051631709ef0760e01b81526001600160a01b0384811660048301523360248301527f00000000000000000000000000000000000000000000000000000000000000001690631709ef0790604401602060405180830381865afa15801561084e573d6000803e3d6000fd5b505050506040513d601f19601f820116820180604052508101906108729190612040565b61088f5760405163ea8e4eb560e01b815260040160405180910390fd5b6040516335f6785160e21b81526001600160a01b0384811660048301527f0000000000000000000000000000000000000000000000000000000000000000169063d7d9e144906024015b600060405180830381865afa1580156108f6573d6000803e3d6000fd5b505050506040513d6000823e601f3d908101601f1916820160405261091e91908101906120a7565b91509150915091565b60405163123781f560e11b8152600481018290527f00000000000000000000000000000000000000000000000000000000000000006001600160a01b03169063246f03ea90602401600060405180830381600087803b15801561098957600080fd5b505af115801561099d573d6000803e3d6000fd5b5050505050565b6000828152602081905260409020600101546109bf81611b70565b6109c98383611b7a565b50505050565b604051631bb493c360e11b81526000906001600160a01b037f00000000000000000000000000000000000000000000000000000000000000001690633769278690610a209086908690600401611ffb565b6020604051808303816000875af1158015610a3f573d6000803e3d6000fd5b505050506040513d601f19601f82011682018060405250810190610a639190612027565b9050336001600160a01b0316836001600160a01b03166000805160206122548339815191528360405161069d91906040808252600e908201526d4d65646963616c486973746f727960901b6060820152602081019190915260800190565b6001600160a01b0381163314610aea5760405163334bd91960e11b815260040160405180910390fd5b610af48282611c0c565b505050565b606060007f00000000000000000000000000000000000000000000000000000000000000006001600160a01b03166391d148547f00000000000000000000000000000000000000000000000000000000000000006001600160a01b031663fec331f26040518163ffffffff1660e01b8152600401602060405180830381865afa158015610b8a573d6000803e3d6000fd5b505050506040513d601f19601f82011682018060405250810190610bae9190612027565b6040516001600160e01b031960e084901b1681526004810191909152336024820152604401602060405180830381865afa158015610bf0573d6000803e3d6000fd5b505050506040513d601f19601f82011682018060405250810190610c149190612040565b610c315760405163ea8e4eb560e01b815260040160405180910390fd5b604051631709ef0760e01b81526001600160a01b0384811660048301523360248301527f00000000000000000000000000000000000000000000000000000000000000001690631709ef0790604401602060405180830381865afa158015610c9d573d6000803e3d6000fd5b505050506040513d601f19601f82011682018060405250810190610cc19190612040565b610cde5760405163ea8e4eb560e01b815260040160405180910390fd5b604051630e7ffe3960e11b81526001600160a01b0384811660048301527f00000000000000000000000000000000000000000000000000000000000000001690631cfffc72906024016108d9565b610d34611c77565b610d3e6000611ca4565b565b6000918252602082815260408084206001600160a01b0393909316845291905290205460ff1690565b6040516339affc3f60e11b81526000906001600160a01b037f0000000000000000000000000000000000000000000000000000000000000000169063735ff87e90610dba9086908690600401611ffb565b6020604051808303816000875af1158015610dd9573d6000803e3d6000fd5b505050506040513d601f19601f82011682018060405250810190610dfd9190612027565b9050336001600160a01b0316836001600160a01b03166000805160206122548339815191528360405161069d91906040808252600f908201526e151c99585d1b595b9d149958dbdc99608a1b6060820152602081019190915260800190565b60606000336001600160a01b03841614610e895760405163ea8e4eb560e01b815260040160405180910390fd5b60405163eb046d6f60e01b81526001600160a01b0384811660048301527f0000000000000000000000000000000000000000000000000000000000000000169063eb046d6f906024016108d9565b60607f00000000000000000000000000000000000000000000000000000000000000006001600160a01b03166391d148547f00000000000000000000000000000000000000000000000000000000000000006001600160a01b031663fec331f26040518163ffffffff1660e01b8152600401602060405180830381865afa158015610f66573d6000803e3d6000fd5b505050506040513d601f19601f82011682018060405250810190610f8a9190612027565b6040516001600160e01b031960e084901b16815260048101919091526001600160a01b0385166024820152604401602060405180830381865afa158015610fd5573d6000803e3d6000fd5b505050506040513d601f19601f82011682018060405250810190610ff99190612040565b156110205750506040805180820190915260068152652237b1ba37b960d11b602082015290565b7f00000000000000000000000000000000000000000000000000000000000000006001600160a01b03166391d148547f00000000000000000000000000000000000000000000000000000000000000006001600160a01b031663ac5cb97d6040518163ffffffff1660e01b8152600401602060405180830381865afa1580156110ad573d6000803e3d6000fd5b505050506040513d601f19601f820116820180604052508101906110d19190612027565b6040516001600160e01b031960e084901b16815260048101919091526001600160a01b0385166024820152604401602060405180830381865afa15801561111c573d6000803e3d6000fd5b505050506040513d601f19601f820116820180604052508101906111409190612040565b1561116857505060408051808201909152600781526614185d1a595b9d60ca1b602082015290565b7f00000000000000000000000000000000000000000000000000000000000000006001600160a01b03166391d148547f00000000000000000000000000000000000000000000000000000000000000006001600160a01b03166350f2aab36040518163ffffffff1660e01b8152600401602060405180830381865afa1580156111f5573d6000803e3d6000fd5b505050506040513d601f19601f820116820180604052508101906112199190612027565b6040516001600160e01b031960e084901b16815260048101919091526001600160a01b0385166024820152604401602060405180830381865afa158015611264573d6000803e3d6000fd5b505050506040513d601f19601f820116820180604052508101906112889190612040565b156112b357505060408051808201909152600a8152692932b9b2b0b931b432b960b11b602082015290565b7f00000000000000000000000000000000000000000000000000000000000000006001600160a01b03166391d148547f00000000000000000000000000000000000000000000000000000000000000006001600160a01b031663ce3d78d66040518163ffffffff1660e01b8152600401602060405180830381865afa158015611340573d6000803e3d6000fd5b505050506040513d601f19601f820116820180604052508101906113649190612027565b6040516001600160e01b031960e084901b16815260048101919091526001600160a01b0385166024820152604401602060405180830381865afa1580156113af573d6000803e3d6000fd5b505050506040513d601f19601f820116820180604052508101906113d39190612040565b156113fb575050604080518082019091526007815266213ab4b63232b960c91b602082015290565b50506040805180820190915260078152664e6f20526f6c6560c81b602082015290565b919050565b7f00000000000000000000000000000000000000000000000000000000000000006001600160a01b03166391d148547f00000000000000000000000000000000000000000000000000000000000000006001600160a01b031663ac5cb97d6040518163ffffffff1660e01b8152600401602060405180830381865afa1580156114b0573d6000803e3d6000fd5b505050506040513d601f19601f820116820180604052508101906114d49190612027565b6040516001600160e01b031960e084901b1681526004810191909152336024820152604401602060405180830381865afa158015611516573d6000803e3d6000fd5b505050506040513d601f19601f8201168201806040525081019061153a9190612040565b6115575760405163ea8e4eb560e01b815260040160405180910390fd5b3360009081526002602052604090205460ff16156115885760405163dcdeaba360e01b815260040160405180910390fd5b3360008181526002602052604090819020805460ff19166001179055516340c10f1960e01b81526004810191909152683635c9adc5dea0000060248201527f00000000000000000000000000000000000000000000000000000000000000006001600160a01b0316906340c10f1990604401600060405180830381600087803b15801561161457600080fd5b505af1158015611628573d6000803e3d6000fd5b50506040513392507f0815fc025344441191f06b0a30088c3d41d26bf4ee95a1795b3ed191ae6af0029150600090a2565b60606000336001600160a01b038416146116865760405163ea8e4eb560e01b815260040160405180910390fd5b604051634666846d60e11b81526001600160a01b0384811660048301527f00000000000000000000000000000000000000000000000000000000000000001690638ccd08da906024016108d9565b60405163317fdc4760e11b81526000906001600160a01b037f000000000000000000000000000000000000000000000000000000000000000016906362ffb88e906117259086908690600401611ffb565b6020604051808303816000875af1158015611744573d6000803e3d6000fd5b505050506040513d601f19601f820116820180604052508101906117689190612027565b9050336001600160a01b0316836001600160a01b03166000805160206122548339815191528360405161069d91906040808252600c908201526b506572736f6e616c496e666f60a01b6060820152602081019190915260800190565b6060807f00000000000000000000000000000000000000000000000000000000000000006001600160a01b03166391d148547f00000000000000000000000000000000000000000000000000000000000000006001600160a01b031663fec331f26040518163ffffffff1660e01b8152600401602060405180830381865afa158015611854573d6000803e3d6000fd5b505050506040513d601f19601f820116820180604052508101906118789190612027565b6040516001600160e01b031960e084901b1681526004810191909152336024820152604401602060405180830381865afa1580156118ba573d6000803e3d6000fd5b505050506040513d601f19601f820116820180604052508101906118de9190612040565b6118fb5760405163ea8e4eb560e01b815260040160405180910390fd5b604051631709ef0760e01b81526001600160a01b0384811660048301523360248301527f00000000000000000000000000000000000000000000000000000000000000001690631709ef0790604401602060405180830381865afa158015611967573d6000803e3d6000fd5b505050506040513d601f19601f8201168201806040525081019061198b9190612040565b6119a85760405163ea8e4eb560e01b815260040160405180910390fd5b604051633d6bf31160e11b81526001600160a01b0384811660048301527f00000000000000000000000000000000000000000000000000000000000000001690637ad7e622906024015b600060405180830381865afa158015611a0f573d6000803e3d6000fd5b505050506040513d6000823e601f3d908101601f1916820160405261091e919081019061217c565b600082815260208190526040902060010154611a5281611b70565b6109c98383611c0c565b611a64611c77565b6001600160a01b038116611a9357604051631e4fbdf760e01b8152600060048201526024015b60405180910390fd5b611a9c81611ca4565b50565b60405160016222a30f60e01b031981526001600160a01b0382811660048301526060916000917f0000000000000000000000000000000000000000000000000000000000000000169063ffdd5cf1906024016108d9565b606080336001600160a01b03841614611b225760405163ea8e4eb560e01b815260040160405180910390fd5b6040516301ecfb6360e21b81526001600160a01b0384811660048301527f000000000000000000000000000000000000000000000000000000000000000016906307b3ed8c906024016119f2565b611a9c8133611cf6565b6000611b868383610d40565b611c04576000838152602081815260408083206001600160a01b03861684529091529020805460ff19166001179055611bbc3390565b6001600160a01b0316826001600160a01b0316847f2f8788117e7eff1d82e926ec794901d17c78024a50270940304540a733656f0d60405160405180910390a45060016105a6565b5060006105a6565b6000611c188383610d40565b15611c04576000838152602081815260408083206001600160a01b0386168085529252808320805460ff1916905551339286917ff6391f5c32d9c69d2a47ea670b442974b53935d1edc7fd64eb21e047a839171b9190a45060016105a6565b6001546001600160a01b03163314610d3e5760405163118cdaa760e01b8152336004820152602401611a8a565b600180546001600160a01b038381166001600160a01b0319831681179093556040519116919082907f8be0079c531659141344cd1fd0a4f28419497f9722a3daafe3b4186f6b6457e090600090a35050565b611d008282610d40565b611d2f5760405163e2517d3f60e01b81526001600160a01b038216600482015260248101839052604401611a8a565b5050565b600060208284031215611d4557600080fd5b81356001600160e01b031981168114611d5d57600080fd5b9392505050565b80356001600160a01b038116811461141e57600080fd5b634e487b7160e01b600052604160045260246000fd5b604051601f8201601f1916810167ffffffffffffffff81118282101715611dba57611dba611d7b565b604052919050565b600067ffffffffffffffff821115611ddc57611ddc611d7b565b50601f01601f191660200190565b60008060408385031215611dfd57600080fd5b611e0683611d64565b9150602083013567ffffffffffffffff811115611e2257600080fd5b8301601f81018513611e3357600080fd5b8035611e46611e4182611dc2565b611d91565b818152866020838501011115611e5b57600080fd5b816020840160208301376000602083830101528093505050509250929050565b600060208284031215611e8d57600080fd5b611d5d82611d64565b60005b83811015611eb1578181015183820152602001611e99565b50506000910152565b60008151808452611ed2816020860160208601611e96565b601f01601f19169290920160200192915050565b604081526000611ef96040830185611eba565b90508260208301529392505050565b600060208284031215611f1a57600080fd5b5035919050565b60008060408385031215611f3457600080fd5b82359150611f4460208401611d64565b90509250929050565b602081526000611d5d6020830184611eba565b6000604082016040835280855180835260608501915060608160051b8601019250602080880160005b83811015611fb757605f19888703018552611fa5868351611eba565b95509382019390820190600101611f89565b50508584038187015286518085528782019482019350915060005b82811015611fee57845184529381019392810192600101611fd2565b5091979650505050505050565b6001600160a01b038316815260406020820181905260009061201f90830184611eba565b949350505050565b60006020828403121561203957600080fd5b5051919050565b60006020828403121561205257600080fd5b81518015158114611d5d57600080fd5b600082601f83011261207357600080fd5b8151612081611e4182611dc2565b81815284602083860101111561209657600080fd5b61201f826020830160208701611e96565b600080604083850312156120ba57600080fd5b825167ffffffffffffffff8111156120d157600080fd5b6120dd85828601612062565b925050602083015190509250929050565b600067ffffffffffffffff82111561210857612108611d7b565b5060051b60200190565b600082601f83011261212357600080fd5b81516020612133611e41836120ee565b8083825260208201915060208460051b87010193508684111561215557600080fd5b602086015b84811015612171578051835291830191830161215a565b509695505050505050565b6000806040838503121561218f57600080fd5b825167ffffffffffffffff808211156121a757600080fd5b818501915085601f8301126121bb57600080fd5b815160206121cb611e41836120ee565b82815260059290921b840181019181810190898411156121ea57600080fd5b8286015b84811015612222578051868111156122065760008081fd5b6122148c86838b0101612062565b8452509183019183016121ee565b509188015191965090935050508082111561223c57600080fd5b5061224985828601612112565b915050925092905056fedebbe4a7f26296df375116282a9b01eeac5d3a655eb03a3919234a31470d19fda264697066735822122084490ce514cddf932df844a3016d947af03cb82b713222d4e6d5d46713fd2f4764736f6c63430008190033",
    "linkReferences": {}
  },
  "methodIdentifiers": {
    "DEFAULT_ADMIN_ROLE()": "a217fddf",
    "approveUpdate(bytes32)": "246f03ea",
    "checkRole(address)": "a0d7823e",
    "currentHealth()": "f1ccfc91",
    "dataMonetizationOptIn(address)": "ec8b6328",
    "getCurrentHealthDoctor(address)": "05a4cfff",
    "getCurrentHealthPatient(address)": "9bdff2c6",
    "getMedicalHistoryDoctor(address)": "378cb0be",
    "getMedicalHistoryPatient(address)": "c68537b9",
    "getPersonalInfo(address)": "f5d78625",
    "getRoleAdmin(bytes32)": "248a9ca3",
    "getTreatmentRecordsDoctor(address)": "d458cfec",
    "getTreatmentRecordsPatient(address)": "f7447e25",
    "grantRole(bytes32,address)": "2f2ff15d",
    "hasRole(bytes32,address)": "91d14854",
    "initiateCurrentHealthUpdate(address,string)": "04542f23",
    "initiateMedicalHistoryUpdate(address,string)": "34fda57c",
    "initiatePersonalInfoUpdate(address,string)": "cb171a84",
    "initiateTreatmentRecordAdd(address,string)": "9a2c02c7",
    "maishaToken()": "079072ac",
    "medicalHistory()": "e0a4c8d6",
    "optInDataMonetization()": "b5de6074",
    "owner()": "8da5cb5b",
    "personalInfo()": "f2dbf12e",
    "renounceOwnership()": "715018a6",
    "renounceRole(bytes32,address)": "36568abe",
    "revokeRole(bytes32,address)": "d547741f",
    "roleManager()": "00435da5",
    "supportsInterface(bytes4)": "01ffc9a7",
    "temporaryAccess()": "f1abc2d3",
    "transferOwnership(address)": "f2fde38b",
    "treatmentRecords()": "3224aea5",
    "updateApproval()": "f926197e"
  },
  "id": 24
}