{
  "abi": [
    {
      "type": "constructor",
      "inputs": [
        {
          "name": "_verifiedRegistry",
          "type": "address",
          "internalType": "address"
        }
      ],
      "stateMutability": "nonpayable"
    },
    {
      "type": "function",
      "name": "ADMIN_ROLE",
      "inputs": [],
      "outputs": [
        {
          "name": "",
          "type": "bytes32",
          "internalType": "bytes32"
        }
      ],
      "stateMutability": "view"
    },
    {
      "type": "function",
      "name": "BUILDER_ROLE",
      "inputs": [],
      "outputs": [
        {
          "name": "",
          "type": "bytes32",
          "internalType": "bytes32"
        }
      ],
      "stateMutability": "view"
    },
    {
      "type": "function",
      "name": "DEFAULT_ADMIN_ROLE",
      "inputs": [],
      "outputs": [
        {
          "name": "",
          "type": "bytes32",
          "internalType": "bytes32"
        }
      ],
      "stateMutability": "view"
    },
    {
      "type": "function",
      "name": "DOCTOR_ROLE",
      "inputs": [],
      "outputs": [
        {
          "name": "",
          "type": "bytes32",
          "internalType": "bytes32"
        }
      ],
      "stateMutability": "view"
    },
    {
      "type": "function",
      "name": "PATIENT_ROLE",
      "inputs": [],
      "outputs": [
        {
          "name": "",
          "type": "bytes32",
          "internalType": "bytes32"
        }
      ],
      "stateMutability": "view"
    },
    {
      "type": "function",
      "name": "RESEARCHER_ROLE",
      "inputs": [],
      "outputs": [
        {
          "name": "",
          "type": "bytes32",
          "internalType": "bytes32"
        }
      ],
      "stateMutability": "view"
    },
    {
      "type": "function",
      "name": "getRoleAdmin",
      "inputs": [
        {
          "name": "role",
          "type": "bytes32",
          "internalType": "bytes32"
        }
      ],
      "outputs": [
        {
          "name": "",
          "type": "bytes32",
          "internalType": "bytes32"
        }
      ],
      "stateMutability": "view"
    },
    {
      "type": "function",
      "name": "grantRole",
      "inputs": [
        {
          "name": "role",
          "type": "bytes32",
          "internalType": "bytes32"
        },
        {
          "name": "account",
          "type": "address",
          "internalType": "address"
        }
      ],
      "outputs": [],
      "stateMutability": "nonpayable"
    },
    {
      "type": "function",
      "name": "hasRole",
      "inputs": [
        {
          "name": "role",
          "type": "bytes32",
          "internalType": "bytes32"
        },
        {
          "name": "account",
          "type": "address",
          "internalType": "address"
        }
      ],
      "outputs": [
        {
          "name": "",
          "type": "bool",
          "internalType": "bool"
        }
      ],
      "stateMutability": "view"
    },
    {
      "type": "function",
      "name": "registerAsBuilder",
      "inputs": [],
      "outputs": [],
      "stateMutability": "nonpayable"
    },
    {
      "type": "function",
      "name": "registerAsDoctor",
      "inputs": [],
      "outputs": [],
      "stateMutability": "nonpayable"
    },
    {
      "type": "function",
      "name": "registerAsPatient",
      "inputs": [],
      "outputs": [],
      "stateMutability": "nonpayable"
    },
    {
      "type": "function",
      "name": "registerAsResearcher",
      "inputs": [],
      "outputs": [],
      "stateMutability": "nonpayable"
    },
    {
      "type": "function",
      "name": "renounceRole",
      "inputs": [
        {
          "name": "role",
          "type": "bytes32",
          "internalType": "bytes32"
        },
        {
          "name": "callerConfirmation",
          "type": "address",
          "internalType": "address"
        }
      ],
      "outputs": [],
      "stateMutability": "nonpayable"
    },
    {
      "type": "function",
      "name": "revokeRole",
      "inputs": [
        {
          "name": "role",
          "type": "bytes32",
          "internalType": "bytes32"
        },
        {
          "name": "account",
          "type": "address",
          "internalType": "address"
        }
      ],
      "outputs": [],
      "stateMutability": "nonpayable"
    },
    {
      "type": "function",
      "name": "supportsInterface",
      "inputs": [
        {
          "name": "interfaceId",
          "type": "bytes4",
          "internalType": "bytes4"
        }
      ],
      "outputs": [
        {
          "name": "",
          "type": "bool",
          "internalType": "bool"
        }
      ],
      "stateMutability": "view"
    },
    {
      "type": "function",
      "name": "verifiedRegistry",
      "inputs": [],
      "outputs": [
        {
          "name": "",
          "type": "address",
          "internalType": "contract VerifiedAddressRegistry"
        }
      ],
      "stateMutability": "view"
    },
    {
      "type": "event",
      "name": "RoleAdminChanged",
      "inputs": [
        {
          "name": "role",
          "type": "bytes32",
          "indexed": true,
          "internalType": "bytes32"
        },
        {
          "name": "previousAdminRole",
          "type": "bytes32",
          "indexed": true,
          "internalType": "bytes32"
        },
        {
          "name": "newAdminRole",
          "type": "bytes32",
          "indexed": true,
          "internalType": "bytes32"
        }
      ],
      "anonymous": false
    },
    {
      "type": "event",
      "name": "RoleGranted",
      "inputs": [
        {
          "name": "role",
          "type": "bytes32",
          "indexed": true,
          "internalType": "bytes32"
        },
        {
          "name": "account",
          "type": "address",
          "indexed": true,
          "internalType": "address"
        },
        {
          "name": "sender",
          "type": "address",
          "indexed": true,
          "internalType": "address"
        }
      ],
      "anonymous": false
    },
    {
      "type": "event",
      "name": "RoleRevoked",
      "inputs": [
        {
          "name": "role",
          "type": "bytes32",
          "indexed": true,
          "internalType": "bytes32"
        },
        {
          "name": "account",
          "type": "address",
          "indexed": true,
          "internalType": "address"
        },
        {
          "name": "sender",
          "type": "address",
          "indexed": true,
          "internalType": "address"
        }
      ],
      "anonymous": false
    },
    {
      "type": "event",
      "name": "SuccessfullyRegistered",
      "inputs": [
        {
          "name": "account",
          "type": "address",
          "indexed": true,
          "internalType": "address"
        },
        {
          "name": "role",
          "type": "bytes32",
          "indexed": true,
          "internalType": "bytes32"
        }
      ],
      "anonymous": false
    },
    {
      "type": "error",
      "name": "AccessControlBadConfirmation",
      "inputs": []
    },
    {
      "type": "error",
      "name": "AccessControlUnauthorizedAccount",
      "inputs": [
        {
          "name": "account",
          "type": "address",
          "internalType": "address"
        },
        {
          "name": "neededRole",
          "type": "bytes32",
          "internalType": "bytes32"
        }
      ]
    },
    {
      "type": "error",
      "name": "AlreadyRegistered",
      "inputs": [
        {
          "name": "role",
          "type": "bytes32",
          "internalType": "bytes32"
        }
      ]
    },
    {
      "type": "error",
      "name": "NotVerified",
      "inputs": [
        {
          "name": "role",
          "type": "bytes32",
          "internalType": "bytes32"
        }
      ]
    }
  ],
  "bytecode": {
    "object": "0x60a060405234801561001057600080fd5b5060405161096938038061096983398101604081905261002f916100f8565b61003a60003361004c565b506001600160a01b0316608052610128565b6000828152602081815260408083206001600160a01b038516845290915281205460ff166100ee576000838152602081815260408083206001600160a01b03861684529091529020805460ff191660011790556100a63390565b6001600160a01b0316826001600160a01b0316847f2f8788117e7eff1d82e926ec794901d17c78024a50270940304540a733656f0d60405160405180910390a45060016100f2565b5060005b92915050565b60006020828403121561010a57600080fd5b81516001600160a01b038116811461012157600080fd5b9392505050565b608051610818610151600039600081816101780152818161034d01526104fa01526108186000f3fe608060405234801561001057600080fd5b506004361061010b5760003560e01c806375b238fc116100a2578063a99ad4ee11610071578063a99ad4ee1461022a578063ac5cb97d14610232578063ce3d78d614610259578063d547741f14610280578063fec331f21461029357600080fd5b806375b238fc146102075780638d38ad1d1461020f57806391d1485414610217578063a217fddf1461020757600080fd5b80632f2ff15d116100de5780632f2ff15d146101b257806336568abe146101c557806350f2aab3146101d85780636ba7fe7f146101ff57600080fd5b806301ffc9a714610110578063117c1f8314610138578063248a9ca31461014257806326d1725d14610173575b600080fd5b61012361011e36600461073a565b6102ba565b60405190151581526020015b60405180910390f35b6101406102f1565b005b61016561015036600461076b565b60009081526020819052604090206001015490565b60405190815260200161012f565b61019a7f000000000000000000000000000000000000000000000000000000000000000081565b6040516001600160a01b03909116815260200161012f565b6101406101c0366004610784565b61031c565b6101406101d3366004610784565b6103ed565b6101657fdfdf2b841d0cbc21071a9d98f0c6e4896c80bf338d769ddf545f871d7af9ef1181565b610140610425565b610165600081565b61014061044e565b610123610225366004610784565b610477565b6101406104a0565b6101657fdc3b9d7fd28cfc7a70a999f2eb4b60672e6b88c8ed3280f4fb467b501b62b92e81565b6101657f7ac30656051904e06bc0ef5fc0aa1a3334e6d6824b83fe5f4a7dd1b39218ba2881565b61014061028e366004610784565b6104c9565b6101657fec03945fa2196716a09674e2cd6a57153479ecb05ea91e189e2688f793ab538181565b60006001600160e01b03198216637965db0b60e01b14806102eb57506301ffc9a760e01b6001600160e01b03198316145b92915050565b61031a7f7ac30656051904e06bc0ef5fc0aa1a3334e6d6824b83fe5f4a7dd1b39218ba286104de565b565b6000610327816105f3565b60405163bf9fb97f60e01b8152600481018490526001600160a01b0383811660248301527f0000000000000000000000000000000000000000000000000000000000000000169063bf9fb97f90604401602060405180830381865afa158015610394573d6000803e3d6000fd5b505050506040513d601f19601f820116820180604052508101906103b891906107c0565b6103dd5760405163c2f4d61760e01b8152600481018490526024015b60405180910390fd5b6103e78383610600565b50505050565b6001600160a01b03811633146104165760405163334bd91960e11b815260040160405180910390fd5b6104208282610692565b505050565b61031a7fec03945fa2196716a09674e2cd6a57153479ecb05ea91e189e2688f793ab53816104de565b61031a7fdfdf2b841d0cbc21071a9d98f0c6e4896c80bf338d769ddf545f871d7af9ef116104de565b6000918252602082815260408084206001600160a01b0393909316845291905290205460ff1690565b61031a7fdc3b9d7fd28cfc7a70a999f2eb4b60672e6b88c8ed3280f4fb467b501b62b92e6104de565b60006104d4816105f3565b6103e78383610692565b60405163bf9fb97f60e01b8152600481018290523360248201527f00000000000000000000000000000000000000000000000000000000000000006001600160a01b03169063bf9fb97f90604401602060405180830381865afa158015610549573d6000803e3d6000fd5b505050506040513d601f19601f8201168201806040525081019061056d91906107c0565b61058d5760405163c2f4d61760e01b8152600481018290526024016103d4565b6105978133610477565b156105b857604051633be57b3960e11b8152600481018290526024016103d4565b6105c28133610600565b50604051819033907f02f266d7ec91a0f88add268c38105ac111797b0e2451111beaecfbd1848a3a9090600090a350565b6105fd81336106fd565b50565b600061060c8383610477565b61068a576000838152602081815260408083206001600160a01b03861684529091529020805460ff191660011790556106423390565b6001600160a01b0316826001600160a01b0316847f2f8788117e7eff1d82e926ec794901d17c78024a50270940304540a733656f0d60405160405180910390a45060016102eb565b5060006102eb565b600061069e8383610477565b1561068a576000838152602081815260408083206001600160a01b0386168085529252808320805460ff1916905551339286917ff6391f5c32d9c69d2a47ea670b442974b53935d1edc7fd64eb21e047a839171b9190a45060016102eb565b6107078282610477565b6107365760405163e2517d3f60e01b81526001600160a01b0382166004820152602481018390526044016103d4565b5050565b60006020828403121561074c57600080fd5b81356001600160e01b03198116811461076457600080fd5b9392505050565b60006020828403121561077d57600080fd5b5035919050565b6000806040838503121561079757600080fd5b8235915060208301356001600160a01b03811681146107b557600080fd5b809150509250929050565b6000602082840312156107d257600080fd5b8151801515811461076457600080fdfea26469706673582212205a38c34977632ade0b8d1e5c6c67fa3a9794c1954ca46d97465b518964af40c464736f6c63430008190033",
    "linkReferences": {}
  },
  "methodIdentifiers": {
    "ADMIN_ROLE()": "75b238fc",
    "BUILDER_ROLE()": "ce3d78d6",
    "DEFAULT_ADMIN_ROLE()": "a217fddf",
    "DOCTOR_ROLE()": "fec331f2",
    "PATIENT_ROLE()": "ac5cb97d",
    "RESEARCHER_ROLE()": "50f2aab3",
    "getRoleAdmin(bytes32)": "248a9ca3",
    "grantRole(bytes32,address)": "2f2ff15d",
    "hasRole(bytes32,address)": "91d14854",
    "registerAsBuilder()": "117c1f83",
    "registerAsDoctor()": "6ba7fe7f",
    "registerAsPatient()": "a99ad4ee",
    "registerAsResearcher()": "8d38ad1d",
    "renounceRole(bytes32,address)": "36568abe",
    "revokeRole(bytes32,address)": "d547741f",
    "supportsInterface(bytes4)": "01ffc9a7",
    "verifiedRegistry()": "26d1725d"
  },
  "id": 28
}