{
  "abi": [
    {
      "type": "constructor",
      "inputs": [
        {
          "name": "_roleManager",
          "type": "address",
          "internalType": "address"
        }
      ],
      "stateMutability": "nonpayable"
    },
    {
      "type": "function",
      "name": "accessExpiry",
      "inputs": [
        {
          "name": "",
          "type": "address",
          "internalType": "address"
        },
        {
          "name": "",
          "type": "address",
          "internalType": "address"
        }
      ],
      "outputs": [
        {
          "name": "",
          "type": "uint256",
          "internalType": "uint256"
        }
      ],
      "stateMutability": "view"
    },
    {
      "type": "function",
      "name": "approveAccess",
      "inputs": [
        {
          "name": "_doctor",
          "type": "address",
          "internalType": "address"
        }
      ],
      "outputs": [],
      "stateMutability": "nonpayable"
    },
    {
      "type": "function",
      "name": "builderAccess",
      "inputs": [
        {
          "name": "",
          "type": "address",
          "internalType": "address"
        },
        {
          "name": "",
          "type": "address",
          "internalType": "address"
        }
      ],
      "outputs": [
        {
          "name": "",
          "type": "bool",
          "internalType": "bool"
        }
      ],
      "stateMutability": "view"
    },
    {
      "type": "function",
      "name": "denyAccess",
      "inputs": [
        {
          "name": "_doctor",
          "type": "address",
          "internalType": "address"
        }
      ],
      "outputs": [],
      "stateMutability": "nonpayable"
    },
    {
      "type": "function",
      "name": "grantBuilderAccess",
      "inputs": [
        {
          "name": "_builder",
          "type": "address",
          "internalType": "address"
        }
      ],
      "outputs": [],
      "stateMutability": "nonpayable"
    },
    {
      "type": "function",
      "name": "grantResearchAccess",
      "inputs": [
        {
          "name": "_researcher",
          "type": "address",
          "internalType": "address"
        }
      ],
      "outputs": [],
      "stateMutability": "nonpayable"
    },
    {
      "type": "function",
      "name": "hasAccess",
      "inputs": [
        {
          "name": "_patient",
          "type": "address",
          "internalType": "address"
        },
        {
          "name": "_doctor",
          "type": "address",
          "internalType": "address"
        }
      ],
      "outputs": [
        {
          "name": "",
          "type": "bool",
          "internalType": "bool"
        }
      ],
      "stateMutability": "view"
    },
    {
      "type": "function",
      "name": "hasBuilderAccess",
      "inputs": [
        {
          "name": "_patient",
          "type": "address",
          "internalType": "address"
        },
        {
          "name": "_builder",
          "type": "address",
          "internalType": "address"
        }
      ],
      "outputs": [
        {
          "name": "",
          "type": "bool",
          "internalType": "bool"
        }
      ],
      "stateMutability": "view"
    },
    {
      "type": "function",
      "name": "hasResearchAccess",
      "inputs": [
        {
          "name": "_patient",
          "type": "address",
          "internalType": "address"
        },
        {
          "name": "_researcher",
          "type": "address",
          "internalType": "address"
        }
      ],
      "outputs": [
        {
          "name": "",
          "type": "bool",
          "internalType": "bool"
        }
      ],
      "stateMutability": "view"
    },
    {
      "type": "function",
      "name": "pendingAccessRequests",
      "inputs": [
        {
          "name": "",
          "type": "address",
          "internalType": "address"
        },
        {
          "name": "",
          "type": "address",
          "internalType": "address"
        }
      ],
      "outputs": [
        {
          "name": "",
          "type": "bool",
          "internalType": "bool"
        }
      ],
      "stateMutability": "view"
    },
    {
      "type": "function",
      "name": "requestAccess",
      "inputs": [
        {
          "name": "_patient",
          "type": "address",
          "internalType": "address"
        }
      ],
      "outputs": [],
      "stateMutability": "nonpayable"
    },
    {
      "type": "function",
      "name": "researchAccess",
      "inputs": [
        {
          "name": "",
          "type": "address",
          "internalType": "address"
        },
        {
          "name": "",
          "type": "address",
          "internalType": "address"
        }
      ],
      "outputs": [
        {
          "name": "",
          "type": "bool",
          "internalType": "bool"
        }
      ],
      "stateMutability": "view"
    },
    {
      "type": "function",
      "name": "revokeAccess",
      "inputs": [
        {
          "name": "_doctor",
          "type": "address",
          "internalType": "address"
        }
      ],
      "outputs": [],
      "stateMutability": "nonpayable"
    },
    {
      "type": "function",
      "name": "roleManager",
      "inputs": [],
      "outputs": [
        {
          "name": "",
          "type": "address",
          "internalType": "contract RoleManager"
        }
      ],
      "stateMutability": "view"
    },
    {
      "type": "event",
      "name": "AccessApproved",
      "inputs": [
        {
          "name": "patient",
          "type": "address",
          "indexed": true,
          "internalType": "address"
        },
        {
          "name": "doctor",
          "type": "address",
          "indexed": true,
          "internalType": "address"
        },
        {
          "name": "expiryTime",
          "type": "uint256",
          "indexed": false,
          "internalType": "uint256"
        }
      ],
      "anonymous": false
    },
    {
      "type": "event",
      "name": "AccessDenied",
      "inputs": [
        {
          "name": "patient",
          "type": "address",
          "indexed": true,
          "internalType": "address"
        },
        {
          "name": "doctor",
          "type": "address",
          "indexed": true,
          "internalType": "address"
        }
      ],
      "anonymous": false
    },
    {
      "type": "event",
      "name": "AccessRequested",
      "inputs": [
        {
          "name": "doctor",
          "type": "address",
          "indexed": true,
          "internalType": "address"
        },
        {
          "name": "patient",
          "type": "address",
          "indexed": true,
          "internalType": "address"
        }
      ],
      "anonymous": false
    },
    {
      "type": "event",
      "name": "AccessRevoked",
      "inputs": [
        {
          "name": "patient",
          "type": "address",
          "indexed": true,
          "internalType": "address"
        },
        {
          "name": "doctor",
          "type": "address",
          "indexed": true,
          "internalType": "address"
        }
      ],
      "anonymous": false
    },
    {
      "type": "event",
      "name": "BuilderAccessGranted",
      "inputs": [
        {
          "name": "patient",
          "type": "address",
          "indexed": true,
          "internalType": "address"
        },
        {
          "name": "builder",
          "type": "address",
          "indexed": true,
          "internalType": "address"
        }
      ],
      "anonymous": false
    },
    {
      "type": "event",
      "name": "ResearchAccessGranted",
      "inputs": [
        {
          "name": "patient",
          "type": "address",
          "indexed": true,
          "internalType": "address"
        },
        {
          "name": "researcher",
          "type": "address",
          "indexed": true,
          "internalType": "address"
        }
      ],
      "anonymous": false
    },
    {
      "type": "error",
      "name": "AccessNotGranted",
      "inputs": []
    },
    {
      "type": "error",
      "name": "InvalidAddress",
      "inputs": []
    },
    {
      "type": "error",
      "name": "NoPendingRequest",
      "inputs": []
    },
    {
      "type": "error",
      "name": "NotAuthorized",
      "inputs": []
    }
  ],
  "bytecode": {
    "object": "0x60a0604052348015600f57600080fd5b506040516113fe3803806113fe833981016040819052602c91603c565b6001600160a01b0316608052606a565b600060208284031215604d57600080fd5b81516001600160a01b0381168114606357600080fd5b9392505050565b6080516112ee6101106000396000818160f301528181610303015281816103320152818161043701528181610466015281816105f9015281816106280152818161072d0152818161075c015281816108c3015281816108f201528181610a6201528181610a9101528181610b9601528181610bc501528181610d9e01528181610dcd01528181610ed201528181610f010152818161106a015261109901526112ee6000f3fe608060405234801561001057600080fd5b50600436106100e95760003560e01c80637e85de551161008c57806389893bc91161006657806389893bc91461022557806391f2059614610261578063acbd94d614610297578063da9915dd146102d357600080fd5b80637e85de55146101d1578063817a7121146101ff57806385e685311461021257600080fd5b806322d17185116100c857806322d171851461016a5780635ec7deee1461019857806361afd5ac146101ab578063705211f4146101be57600080fd5b8062435da5146100ee578063022cb271146101325780631709ef0714610147575b600080fd5b6101157f000000000000000000000000000000000000000000000000000000000000000081565b6040516001600160a01b0390911681526020015b60405180910390f35b610145610140366004611207565b610301565b005b61015a610155366004611229565b6105ca565b6040519015158152602001610129565b61015a610178366004611229565b600360209081526000928352604080842090915290825290205460ff1681565b6101456101a6366004611207565b6105f7565b6101456101b9366004611207565b6108c1565b6101456101cc366004611207565b610a60565b61015a6101df366004611229565b600160209081526000928352604080842090915290825290205460ff1681565b61014561020d366004611207565b610d9c565b610145610220366004611207565b611068565b61015a610233366004611229565b6001600160a01b03918216600090815260026020908152604080832093909416825291909152205460ff1690565b61028961026f366004611229565b600060208181529281526040808220909352908152205481565b604051908152602001610129565b61015a6102a5366004611229565b6001600160a01b03918216600090815260016020908152604080832093909416825291909152205460ff1690565b61015a6102e1366004611229565b600260209081526000928352604080842090915290825290205460ff1681565b7f00000000000000000000000000000000000000000000000000000000000000006001600160a01b03166391d148547f00000000000000000000000000000000000000000000000000000000000000006001600160a01b031663fec331f26040518163ffffffff1660e01b8152600401602060405180830381865afa15801561038e573d6000803e3d6000fd5b505050506040513d601f19601f820116820180604052508101906103b2919061125c565b6040516001600160e01b031960e084901b1681526004810191909152336024820152604401602060405180830381865afa1580156103f4573d6000803e3d6000fd5b505050506040513d601f19601f820116820180604052508101906104189190611275565b6104355760405163ea8e4eb560e01b815260040160405180910390fd5b7f00000000000000000000000000000000000000000000000000000000000000006001600160a01b03166391d148547f00000000000000000000000000000000000000000000000000000000000000006001600160a01b031663ac5cb97d6040518163ffffffff1660e01b8152600401602060405180830381865afa1580156104c2573d6000803e3d6000fd5b505050506040513d601f19601f820116820180604052508101906104e6919061125c565b6040516001600160e01b031960e084901b16815260048101919091526001600160a01b0384166024820152604401602060405180830381865afa158015610531573d6000803e3d6000fd5b505050506040513d601f19601f820116820180604052508101906105559190611275565b6105725760405163e6c4247b60e01b815260040160405180910390fd5b6001600160a01b0381166000818152600360209081526040808320338085529252808320805460ff191660011790555190917f40c7749b16fdfb0d550f20273a7767875059d647af94f5a9610c63ad73dcc79f91a350565b6001600160a01b038083166000908152602081815260408083209385168352929052205442105b92915050565b7f00000000000000000000000000000000000000000000000000000000000000006001600160a01b03166391d148547f00000000000000000000000000000000000000000000000000000000000000006001600160a01b031663ac5cb97d6040518163ffffffff1660e01b8152600401602060405180830381865afa158015610684573d6000803e3d6000fd5b505050506040513d601f19601f820116820180604052508101906106a8919061125c565b6040516001600160e01b031960e084901b1681526004810191909152336024820152604401602060405180830381865afa1580156106ea573d6000803e3d6000fd5b505050506040513d601f19601f8201168201806040525081019061070e9190611275565b61072b5760405163ea8e4eb560e01b815260040160405180910390fd5b7f00000000000000000000000000000000000000000000000000000000000000006001600160a01b03166391d148547f00000000000000000000000000000000000000000000000000000000000000006001600160a01b031663ce3d78d66040518163ffffffff1660e01b8152600401602060405180830381865afa1580156107b8573d6000803e3d6000fd5b505050506040513d601f19601f820116820180604052508101906107dc919061125c565b6040516001600160e01b031960e084901b16815260048101919091526001600160a01b0384166024820152604401602060405180830381865afa158015610827573d6000803e3d6000fd5b505050506040513d601f19601f8201168201806040525081019061084b9190611275565b6108685760405163e6c4247b60e01b815260040160405180910390fd5b3360008181526002602090815260408083206001600160a01b0386168085529252808320805460ff19166001179055519092917f1e7eac39206962394b2d85df4f6fc24249d0534ecf416b4b5abd1d3a47b0563091a350565b7f00000000000000000000000000000000000000000000000000000000000000006001600160a01b03166391d148547f00000000000000000000000000000000000000000000000000000000000000006001600160a01b031663ac5cb97d6040518163ffffffff1660e01b8152600401602060405180830381865afa15801561094e573d6000803e3d6000fd5b505050506040513d601f19601f82011682018060405250810190610972919061125c565b6040516001600160e01b031960e084901b1681526004810191909152336024820152604401602060405180830381865afa1580156109b4573d6000803e3d6000fd5b505050506040513d601f19601f820116820180604052508101906109d89190611275565b6109f55760405163ea8e4eb560e01b815260040160405180910390fd5b336000818152602081815260408083206001600160a01b03861680855290835281842084905584845260038352818420818552909252808320805460ff19169055519092917fc21bbf9d94f95c3d399c96e6e0a641c57c9d086081bf1ab101a242d646821f8091a350565b7f00000000000000000000000000000000000000000000000000000000000000006001600160a01b03166391d148547f00000000000000000000000000000000000000000000000000000000000000006001600160a01b031663ac5cb97d6040518163ffffffff1660e01b8152600401602060405180830381865afa158015610aed573d6000803e3d6000fd5b505050506040513d601f19601f82011682018060405250810190610b11919061125c565b6040516001600160e01b031960e084901b1681526004810191909152336024820152604401602060405180830381865afa158015610b53573d6000803e3d6000fd5b505050506040513d601f19601f82011682018060405250810190610b779190611275565b610b945760405163ea8e4eb560e01b815260040160405180910390fd5b7f00000000000000000000000000000000000000000000000000000000000000006001600160a01b03166391d148547f00000000000000000000000000000000000000000000000000000000000000006001600160a01b031663fec331f26040518163ffffffff1660e01b8152600401602060405180830381865afa158015610c21573d6000803e3d6000fd5b505050506040513d601f19601f82011682018060405250810190610c45919061125c565b6040516001600160e01b031960e084901b16815260048101919091526001600160a01b0384166024820152604401602060405180830381865afa158015610c90573d6000803e3d6000fd5b505050506040513d601f19601f82011682018060405250810190610cb49190611275565b610cd15760405163e6c4247b60e01b815260040160405180910390fd5b3360009081526003602090815260408083206001600160a01b038516845290915290205460ff16610d155760405163198580dd60e31b815260040160405180910390fd5b6000610d2361025842611297565b336000818152602081815260408083206001600160a01b03881680855290835281842086905584845260038352818420818552835292819020805460ff191690555184815293945090927f9f568fc319bb7f97207b645908ae87eb85c031b586f644c86cc3e86a9cc49e72910160405180910390a35050565b7f00000000000000000000000000000000000000000000000000000000000000006001600160a01b03166391d148547f00000000000000000000000000000000000000000000000000000000000000006001600160a01b031663ac5cb97d6040518163ffffffff1660e01b8152600401602060405180830381865afa158015610e29573d6000803e3d6000fd5b505050506040513d601f19601f82011682018060405250810190610e4d919061125c565b6040516001600160e01b031960e084901b1681526004810191909152336024820152604401602060405180830381865afa158015610e8f573d6000803e3d6000fd5b505050506040513d601f19601f82011682018060405250810190610eb39190611275565b610ed05760405163ea8e4eb560e01b815260040160405180910390fd5b7f00000000000000000000000000000000000000000000000000000000000000006001600160a01b03166391d148547f00000000000000000000000000000000000000000000000000000000000000006001600160a01b03166350f2aab36040518163ffffffff1660e01b8152600401602060405180830381865afa158015610f5d573d6000803e3d6000fd5b505050506040513d601f19601f82011682018060405250810190610f81919061125c565b6040516001600160e01b031960e084901b16815260048101919091526001600160a01b0384166024820152604401602060405180830381865afa158015610fcc573d6000803e3d6000fd5b505050506040513d601f19601f82011682018060405250810190610ff09190611275565b61100d5760405163e6c4247b60e01b815260040160405180910390fd5b3360008181526001602081815260408084206001600160a01b0387168086529252808420805460ff191690931790925590519092917f62448a74b151070dee52d307fb7fa5817953a60d48fc5fd87f200e8c187aa23b91a350565b7f00000000000000000000000000000000000000000000000000000000000000006001600160a01b03166391d148547f00000000000000000000000000000000000000000000000000000000000000006001600160a01b031663ac5cb97d6040518163ffffffff1660e01b8152600401602060405180830381865afa1580156110f5573d6000803e3d6000fd5b505050506040513d601f19601f82011682018060405250810190611119919061125c565b6040516001600160e01b031960e084901b1681526004810191909152336024820152604401602060405180830381865afa15801561115b573d6000803e3d6000fd5b505050506040513d601f19601f8201168201806040525081019061117f9190611275565b61119c5760405163ea8e4eb560e01b815260040160405180910390fd5b336000818152602081815260408083206001600160a01b0386168085529252808320839055519092917f825c8be24eb0df19500f63e86c29e7d0d951e73056b889b891d85e40938d9b6e91a350565b80356001600160a01b038116811461120257600080fd5b919050565b60006020828403121561121957600080fd5b611222826111eb565b9392505050565b6000806040838503121561123c57600080fd5b611245836111eb565b9150611253602084016111eb565b90509250929050565b60006020828403121561126e57600080fd5b5051919050565b60006020828403121561128757600080fd5b8151801515811461122257600080fd5b808201808211156105f157634e487b7160e01b600052601160045260246000fdfea2646970667358221220ee2318f23471ade3e5ae0f2ec406b4be197680ec75d769675adc705f0b80303664736f6c63430008190033",
    "linkReferences": {}
  },
  "methodIdentifiers": {
    "accessExpiry(address,address)": "91f20596",
    "approveAccess(address)": "705211f4",
    "builderAccess(address,address)": "da9915dd",
    "denyAccess(address)": "61afd5ac",
    "grantBuilderAccess(address)": "5ec7deee",
    "grantResearchAccess(address)": "817a7121",
    "hasAccess(address,address)": "1709ef07",
    "hasBuilderAccess(address,address)": "89893bc9",
    "hasResearchAccess(address,address)": "acbd94d6",
    "pendingAccessRequests(address,address)": "22d17185",
    "requestAccess(address)": "022cb271",
    "researchAccess(address,address)": "7e85de55",
    "revokeAccess(address)": "85e68531",
    "roleManager()": "00435da5"
  },
  "id": 29
}