{"abi":[{"type":"constructor","inputs":[{"name":"_roleManager","type":"address","internalType":"address"},{"name":"_updateApproval","type":"address","internalType":"address"},{"name":"_temporaryAccess","type":"address","internalType":"address"}],"stateMutability":"nonpayable"},{"type":"function","name":"getAnonymizedInfo","inputs":[{"name":"_patient","type":"address","internalType":"address"}],"outputs":[{"name":"","type":"uint256","internalType":"uint256"}],"stateMutability":"view"},{"type":"function","name":"getBuilderInfo","inputs":[{"name":"_patient","type":"address","internalType":"address"}],"outputs":[{"name":"","type":"uint256","internalType":"uint256"}],"stateMutability":"view"},{"type":"function","name":"getInfo","inputs":[{"name":"_patient","type":"address","internalType":"address"}],"outputs":[{"name":"","type":"string","internalType":"string"},{"name":"","type":"uint256","internalType":"uint256"}],"stateMutability":"view"},{"type":"function","name":"initiateInfoUpdate","inputs":[{"name":"_patient","type":"address","internalType":"address"},{"name":"_dataHash","type":"string","internalType":"string"}],"outputs":[{"name":"","type":"bytes32","internalType":"bytes32"}],"stateMutability":"nonpayable"},{"type":"function","name":"initiateUpdate","inputs":[{"name":"_patient","type":"address","internalType":"address"},{"name":"_dataHash","type":"string","internalType":"string"}],"outputs":[{"name":"","type":"bytes32","internalType":"bytes32"}],"stateMutability":"nonpayable"},{"type":"function","name":"owner","inputs":[],"outputs":[{"name":"","type":"address","internalType":"address"}],"stateMutability":"view"},{"type":"function","name":"renounceOwnership","inputs":[],"outputs":[],"stateMutability":"nonpayable"},{"type":"function","name":"roleManager","inputs":[],"outputs":[{"name":"","type":"address","internalType":"contract RoleManager"}],"stateMutability":"view"},{"type":"function","name":"temporaryAccess","inputs":[],"outputs":[{"name":"","type":"address","internalType":"contract TemporaryAccess"}],"stateMutability":"view"},{"type":"function","name":"transferOwnership","inputs":[{"name":"newOwner","type":"address","internalType":"address"}],"outputs":[],"stateMutability":"nonpayable"},{"type":"function","name":"updateApproval","inputs":[],"outputs":[{"name":"","type":"address","internalType":"contract UpdateApproval"}],"stateMutability":"view"},{"type":"function","name":"updateData","inputs":[{"name":"_updateId","type":"bytes32","internalType":"bytes32"}],"outputs":[],"stateMutability":"nonpayable"},{"type":"event","name":"DataUpdateInitiated","inputs":[{"name":"patient","type":"address","indexed":true,"internalType":"address"},{"name":"initiator","type":"address","indexed":true,"internalType":"address"},{"name":"updateId","type":"bytes32","indexed":false,"internalType":"bytes32"}],"anonymous":false},{"type":"event","name":"DataUpdated","inputs":[{"name":"patient","type":"address","indexed":true,"internalType":"address"},{"name":"timestamp","type":"uint256","indexed":false,"internalType":"uint256"}],"anonymous":false},{"type":"event","name":"OwnershipTransferred","inputs":[{"name":"previousOwner","type":"address","indexed":true,"internalType":"address"},{"name":"newOwner","type":"address","indexed":true,"internalType":"address"}],"anonymous":false},{"type":"error","name":"InvalidDataHash","inputs":[]},{"type":"error","name":"NoTemporaryAccess","inputs":[]},{"type":"error","name":"NotAuthorized","inputs":[]},{"type":"error","name":"OwnableInvalidOwner","inputs":[{"name":"owner","type":"address","internalType":"address"}]},{"type":"error","name":"OwnableUnauthorizedAccount","inputs":[{"name":"account","type":"address","internalType":"address"}]},{"type":"error","name":"UpdateNotApproved","inputs":[]}],"bytecode":{"object":"0x60e060405234801561001057600080fd5b506040516115a33803806115a383398101604081905261002f916100ef565b828282338061005857604051631e4fbdf760e01b81526000600482015260240160405180910390fd5b61006181610083565b506001600160a01b0392831660805290821660a0521660c05250610132915050565b600080546001600160a01b038381166001600160a01b0319831681178455604051919092169283917f8be0079c531659141344cd1fd0a4f28419497f9722a3daafe3b4186f6b6457e09190a35050565b80516001600160a01b03811681146100ea57600080fd5b919050565b60008060006060848603121561010457600080fd5b61010d846100d3565b925061011b602085016100d3565b9150610129604085016100d3565b90509250925092565b60805160a05160c0516113d36101d0600039600081816101890152610c660152600081816101c3015281816105850152818161061c015261076701526000818160bd0152818161020a01528181610239015281816103600152818161038f015281816104e401528181610513015281816108cf015281816108fe015281816109ee01528181610a1d01528181610b250152610b5401526113d36000f3fe608060405234801561001057600080fd5b50600436106100b35760003560e01c8063cdf7f8e611610071578063cdf7f8e61461015e578063ea21da1c14610171578063f1abc2d314610184578063f2fde38b146101ab578063f926197e146101be578063ffdd5cf1146101e557600080fd5b8062435da5146100b85780630de66bc9146100fc57806362ffb88e1461011d578063715018a6146101305780638da5cb5b1461013a578063b339acac1461014b575b600080fd5b6100df7f000000000000000000000000000000000000000000000000000000000000000081565b6040516001600160a01b0390911681526020015b60405180910390f35b61010f61010a366004610fcf565b610206565b6040519081526020016100f3565b61010f61012b366004611002565b61035c565b6101386104cc565b005b6000546001600160a01b03166100df565b61010f610159366004610fcf565b6104e0565b61013861016c3660046110c6565b61056f565b61010f61017f366004611002565b61073f565b6100df7f000000000000000000000000000000000000000000000000000000000000000081565b6101386101b9366004610fcf565b610886565b6100df7f000000000000000000000000000000000000000000000000000000000000000081565b6101f86101f3366004610fcf565b6108c9565b6040516100f3929190611103565b60007f00000000000000000000000000000000000000000000000000000000000000006001600160a01b03166391d148547f00000000000000000000000000000000000000000000000000000000000000006001600160a01b031663ce3d78d66040518163ffffffff1660e01b8152600401602060405180830381865afa158015610295573d6000803e3d6000fd5b505050506040513d601f19601f820116820180604052508101906102b9919061113e565b6040516001600160e01b031960e084901b1681526004810191909152336024820152604401602060405180830381865afa1580156102fb573d6000803e3d6000fd5b505050506040513d601f19601f8201168201806040525081019061031f919061116c565b61033c5760405163ea8e4eb560e01b815260040160405180910390fd5b506001600160a01b03166000908152600160208190526040909120015490565b60007f00000000000000000000000000000000000000000000000000000000000000006001600160a01b03166391d148547f00000000000000000000000000000000000000000000000000000000000000006001600160a01b031663ac5cb97d6040518163ffffffff1660e01b8152600401602060405180830381865afa1580156103eb573d6000803e3d6000fd5b505050506040513d601f19601f8201168201806040525081019061040f919061113e565b6040516001600160e01b031960e084901b1681526004810191909152336024820152604401602060405180830381865afa158015610451573d6000803e3d6000fd5b505050506040513d601f19601f82011682018060405250810190610475919061116c565b6104925760405163ea8e4eb560e01b815260040160405180910390fd5b336001600160a01b038416146104bb5760405163ea8e4eb560e01b815260040160405180910390fd5b6104c5838361073f565b9392505050565b6104d4610dbf565b6104de6000610dec565b565b60007f00000000000000000000000000000000000000000000000000000000000000006001600160a01b03166391d148547f00000000000000000000000000000000000000000000000000000000000000006001600160a01b03166350f2aab36040518163ffffffff1660e01b8152600401602060405180830381865afa158015610295573d6000803e3d6000fd5b6040516324577e1960e11b8152600481018290527f00000000000000000000000000000000000000000000000000000000000000006001600160a01b0316906348aefc3290602401602060405180830381865afa1580156105d4573d6000803e3d6000fd5b505050506040513d601f19601f820116820180604052508101906105f8919061116c565b6106155760405163208fd29560e01b815260040160405180910390fd5b60008060007f00000000000000000000000000000000000000000000000000000000000000006001600160a01b031663b653f795856040518263ffffffff1660e01b815260040161066891815260200190565b60c060405180830381865afa158015610685573d6000803e3d6000fd5b505050506040513d601f19601f820116820180604052508101906106a99190611187565b505050925092509250826001600160a01b0316336001600160a01b0316146106e45760405163ea8e4eb560e01b815260040160405180910390fd5b6106f6826106f183610e3c565b610f6c565b816001600160a01b03167f8aa8bd4e43dc6bb61a5221865a01a65c13e1171dfe8c9ba47c09cf85c07435a14260405161073191815260200190565b60405180910390a250505050565b6000815160000361076357604051633b8f85f760e21b815260040160405180910390fd5b60007f00000000000000000000000000000000000000000000000000000000000000006001600160a01b0316633fda6ebb85856040516020016107a691906111f3565b604051602081830303815290604052805190602001206040518363ffffffff1660e01b81526004016107ed9291906001600160a01b03929092168252602082015260400190565b6020604051808303816000875af115801561080c573d6000803e3d6000fd5b505050506040513d601f19601f82011682018060405250810190610830919061113e565b9050336001600160a01b0316846001600160a01b03167fbdccc417c162f3dfde03c1b522239d245b23265f90ecd089610ac31923ad4c038360405161087791815260200190565b60405180910390a39392505050565b61088e610dbf565b6001600160a01b0381166108bd57604051631e4fbdf760e01b8152600060048201526024015b60405180910390fd5b6108c681610dec565b50565b606060007f00000000000000000000000000000000000000000000000000000000000000006001600160a01b03166391d148547f00000000000000000000000000000000000000000000000000000000000000006001600160a01b031663ac5cb97d6040518163ffffffff1660e01b8152600401602060405180830381865afa15801561095a573d6000803e3d6000fd5b505050506040513d601f19601f8201168201806040525081019061097e919061113e565b6040516001600160e01b031960e084901b1681526004810191909152336024820152604401602060405180830381865afa1580156109c0573d6000803e3d6000fd5b505050506040513d601f19601f820116820180604052508101906109e4919061116c565b158015610b0557507f00000000000000000000000000000000000000000000000000000000000000006001600160a01b03166391d148547f00000000000000000000000000000000000000000000000000000000000000006001600160a01b031663fec331f26040518163ffffffff1660e01b8152600401602060405180830381865afa158015610a79573d6000803e3d6000fd5b505050506040513d601f19601f82011682018060405250810190610a9d919061113e565b6040516001600160e01b031960e084901b1681526004810191909152336024820152604401602060405180830381865afa158015610adf573d6000803e3d6000fd5b505050506040513d601f19601f82011682018060405250810190610b03919061116c565b155b15610b235760405163ea8e4eb560e01b815260040160405180910390fd5b7f00000000000000000000000000000000000000000000000000000000000000006001600160a01b03166391d148547f00000000000000000000000000000000000000000000000000000000000000006001600160a01b031663fec331f26040518163ffffffff1660e01b8152600401602060405180830381865afa158015610bb0573d6000803e3d6000fd5b505050506040513d601f19601f82011682018060405250810190610bd4919061113e565b6040516001600160e01b031960e084901b1681526004810191909152336024820152604401602060405180830381865afa158015610c16573d6000803e3d6000fd5b505050506040513d601f19601f82011682018060405250810190610c3a919061116c565b8015610cd35750604051631709ef0760e01b81526001600160a01b0384811660048301523360248301527f00000000000000000000000000000000000000000000000000000000000000001690631709ef0790604401602060405180830381865afa158015610cad573d6000803e3d6000fd5b505050506040513d601f19601f82011682018060405250810190610cd1919061116c565b155b15610cf157604051630a48d08f60e01b815260040160405180910390fd5b6001600160a01b0383166000908152600160205260408082208151808301909252805482908290610d219061120f565b80601f0160208091040260200160405190810160405280929190818152602001828054610d4d9061120f565b8015610d9a5780601f10610d6f57610100808354040283529160200191610d9a565b820191906000526020600020905b815481529060010190602001808311610d7d57829003601f168201915b5050509183525050600191909101546020918201528151910151909590945092505050565b6000546001600160a01b031633146104de5760405163118cdaa760e01b81523360048201526024016108b4565b600080546001600160a01b038381166001600160a01b0319831681178455604051919092169283917f8be0079c531659141344cd1fd0a4f28419497f9722a3daafe3b4186f6b6457e09190a35050565b606060005b60208160ff16108015610e755750828160ff1660208110610e6457610e64611249565b1a60f81b6001600160f81b03191615155b15610e8c5780610e848161125f565b915050610e41565b60008160ff1667ffffffffffffffff811115610eaa57610eaa610fec565b6040519080825280601f01601f191660200182016040528015610ed4576020820181803683370190505b509050600091505b60208260ff16108015610f105750838260ff1660208110610eff57610eff611249565b1a60f81b6001600160f81b03191615155b156104c557838260ff1660208110610f2a57610f2a611249565b1a60f81b818360ff1681518110610f4357610f43611249565b60200101906001600160f81b031916908160001a90535081610f648161125f565b925050610edc565b604080518082018252828152426020808301919091526001600160a01b038516600090815260019091529190912081518190610fa890826112dd565b50602082015181600101559050505050565b6001600160a01b03811681146108c657600080fd5b600060208284031215610fe157600080fd5b81356104c581610fba565b634e487b7160e01b600052604160045260246000fd5b6000806040838503121561101557600080fd5b823561102081610fba565b9150602083013567ffffffffffffffff8082111561103d57600080fd5b818501915085601f83011261105157600080fd5b81358181111561106357611063610fec565b604051601f8201601f19908116603f0116810190838211818310171561108b5761108b610fec565b816040528281528860208487010111156110a457600080fd5b8260208601602083013760006020848301015280955050505050509250929050565b6000602082840312156110d857600080fd5b5035919050565b60005b838110156110fa5781810151838201526020016110e2565b50506000910152565b60408152600083518060408401526111228160608501602088016110df565b602083019390935250601f91909101601f191601606001919050565b60006020828403121561115057600080fd5b5051919050565b8051801515811461116757600080fd5b919050565b60006020828403121561117e57600080fd5b6104c582611157565b60008060008060008060c087890312156111a057600080fd5b86516111ab81610fba565b60208801519096506111bc81610fba565b60408801516060890151919650945092506111d960808801611157565b91506111e760a08801611157565b90509295509295509295565b600082516112058184602087016110df565b9190910192915050565b600181811c9082168061122357607f821691505b60208210810361124357634e487b7160e01b600052602260045260246000fd5b50919050565b634e487b7160e01b600052603260045260246000fd5b600060ff821660ff810361128357634e487b7160e01b600052601160045260246000fd5b60010192915050565b601f8211156112d8576000816000526020600020601f850160051c810160208610156112b55750805b601f850160051c820191505b818110156112d4578281556001016112c1565b5050505b505050565b815167ffffffffffffffff8111156112f7576112f7610fec565b61130b81611305845461120f565b8461128c565b602080601f83116001811461134057600084156113285750858301515b600019600386901b1c1916600185901b1785556112d4565b600085815260208120601f198616915b8281101561136f57888601518255948401946001909101908401611350565b508582101561138d5787850151600019600388901b60f8161c191681555b5050505050600190811b0190555056fea2646970667358221220e94333ae40a94175ca6b9cfe48466b619ede09e8e4e80de0c8fa4c9966303a8464736f6c63430008190033","linkReferences":{}},"methodIdentifiers":{"getAnonymizedInfo(address)":"b339acac","getBuilderInfo(address)":"0de66bc9","getInfo(address)":"ffdd5cf1","initiateInfoUpdate(address,string)":"62ffb88e","initiateUpdate(address,string)":"ea21da1c","owner()":"8da5cb5b","renounceOwnership()":"715018a6","roleManager()":"00435da5","temporaryAccess()":"f1abc2d3","transferOwnership(address)":"f2fde38b","updateApproval()":"f926197e","updateData(bytes32)":"cdf7f8e6"},"id":27}