{"abi":[{"type":"constructor","inputs":[{"name":"_roleManager","type":"address","internalType":"address"}],"stateMutability":"nonpayable"},{"type":"function","name":"approveUpdate","inputs":[{"name":"_updateId","type":"bytes32","internalType":"bytes32"}],"outputs":[],"stateMutability":"nonpayable"},{"type":"function","name":"getPendingUpdate","inputs":[{"name":"_updateId","type":"bytes32","internalType":"bytes32"}],"outputs":[{"name":"doctor","type":"address","internalType":"address"},{"name":"patient","type":"address","internalType":"address"},{"name":"dataHash","type":"bytes32","internalType":"bytes32"},{"name":"timestamp","type":"uint256","internalType":"uint256"},{"name":"doctorApproved","type":"bool","internalType":"bool"},{"name":"patientApproved","type":"bool","internalType":"bool"}],"stateMutability":"view"},{"type":"function","name":"initiateUpdate","inputs":[{"name":"_patient","type":"address","internalType":"address"},{"name":"_dataHash","type":"bytes32","internalType":"bytes32"}],"outputs":[{"name":"","type":"bytes32","internalType":"bytes32"}],"stateMutability":"nonpayable"},{"type":"function","name":"isApproved","inputs":[{"name":"_updateId","type":"bytes32","internalType":"bytes32"}],"outputs":[{"name":"","type":"bool","internalType":"bool"}],"stateMutability":"view"},{"type":"function","name":"pendingUpdates","inputs":[{"name":"","type":"bytes32","internalType":"bytes32"}],"outputs":[{"name":"doctor","type":"address","internalType":"address"},{"name":"patient","type":"address","internalType":"address"},{"name":"dataHash","type":"bytes32","internalType":"bytes32"},{"name":"timestamp","type":"uint256","internalType":"uint256"},{"name":"doctorApproved","type":"bool","internalType":"bool"},{"name":"patientApproved","type":"bool","internalType":"bool"}],"stateMutability":"view"},{"type":"function","name":"roleManager","inputs":[],"outputs":[{"name":"","type":"address","internalType":"contract RoleManager"}],"stateMutability":"view"},{"type":"event","name":"UpdateApproved","inputs":[{"name":"updateId","type":"bytes32","indexed":true,"internalType":"bytes32"},{"name":"approver","type":"address","indexed":true,"internalType":"address"}],"anonymous":false},{"type":"event","name":"UpdateCompleted","inputs":[{"name":"updateId","type":"bytes32","indexed":true,"internalType":"bytes32"}],"anonymous":false},{"type":"event","name":"UpdateInitiated","inputs":[{"name":"updateId","type":"bytes32","indexed":true,"internalType":"bytes32"},{"name":"doctor","type":"address","indexed":true,"internalType":"address"},{"name":"patient","type":"address","indexed":true,"internalType":"address"}],"anonymous":false},{"type":"error","name":"AlreadyApproved","inputs":[]},{"type":"error","name":"NotAuthorized","inputs":[]},{"type":"error","name":"UpdateDoesNotExist","inputs":[]}],"bytecode":{"object":"0x60a0604052348015600f57600080fd5b50604051610747380380610747833981016040819052602c91603c565b6001600160a01b0316608052606a565b600060208284031215604d57600080fd5b81516001600160a01b0381168114606357600080fd5b9392505050565b6080516106b561009260003960008181606b01528181610333015261036201526106b56000f3fe608060405234801561001057600080fd5b50600436106100615760003560e01c8062435da514610066578063246f03ea146100aa5780633fda6ebb146100bf57806348aefc32146100e0578063b653f79514610103578063d45548a914610197575b600080fd5b61008d7f000000000000000000000000000000000000000000000000000000000000000081565b6040516001600160a01b0390911681526020015b60405180910390f35b6100bd6100b83660046105f3565b6101ec565b005b6100d26100cd36600461060c565b61032f565b6040519081526020016100a1565b6100f36100ee3660046105f3565b6105c1565b60405190151581526020016100a1565b61015b6101113660046105f3565b600090815260208190526040902080546001820154600283015460038401546004909401546001600160a01b039384169593909216939092909160ff808216926101009092041690565b604080516001600160a01b03978816815296909516602087015293850192909252606084015215156080830152151560a082015260c0016100a1565b61015b6101a53660046105f3565b600060208190529081526040902080546001820154600283015460038401546004909401546001600160a01b03938416949390921692909160ff8082169161010090041686565b6000818152602081905260408120600381015490910361021f5760405163117da01360e31b815260040160405180910390fd5b60018101546001600160a01b03163314801561024557506004810154610100900460ff16155b156102605760048101805461ff0019166101001790556102b0565b80546001600160a01b03163314801561027e5750600481015460ff16155b156102975760048101805460ff191660011790556102b0565b60405163080fc0bd60e11b815260040160405180910390fd5b604051339083907fd86a2d30e978cbe8b2663e19e4ae4f79dc1542fb595f1c5bcfb8edad4c6fb06490600090a3600481015460ff1680156102fa57506004810154610100900460ff165b1561032b5760405182907f11c913c3b638fd1bfa8311056db08899c0beb702609e70360da1e342e206df7a90600090a25b5050565b60007f00000000000000000000000000000000000000000000000000000000000000006001600160a01b03166391d148547f00000000000000000000000000000000000000000000000000000000000000006001600160a01b031663fec331f26040518163ffffffff1660e01b8152600401602060405180830381865afa1580156103be573d6000803e3d6000fd5b505050506040513d601f19601f820116820180604052508101906103e29190610644565b6040516001600160e01b031960e084901b1681526004810191909152336024820152604401602060405180830381865afa158015610424573d6000803e3d6000fd5b505050506040513d601f19601f82011682018060405250810190610448919061065d565b6104655760405163ea8e4eb560e01b815260040160405180910390fd5b6040516bffffffffffffffffffffffff1933606090811b8216602084015285901b1660348201526048810183905242606882015260009060880160408051601f19818403018152828252805160209182012060c084018352338085526001600160a01b038981168685018181528787018b81524260608a01908152600160808b01818152600060a08d018181528a82529a8190528b81209c518d549089166001600160a01b0319918216178e559551928d018054939098169290951691909117909555905160028a0155516003890155915160049097018054955115156101000261ff00199815159890981661ffff199096169590951796909617909355925190945084917fa67ebb7fa332501ead0f358b946c87c630e9d72333a0f60130e320d7aaf9d0ff91a4604051339082907fd86a2d30e978cbe8b2663e19e4ae4f79dc1542fb595f1c5bcfb8edad4c6fb06490600090a39392505050565b6000818152602081905260408120600481015460ff1680156105ec57506004810154610100900460ff165b9392505050565b60006020828403121561060557600080fd5b5035919050565b6000806040838503121561061f57600080fd5b82356001600160a01b038116811461063657600080fd5b946020939093013593505050565b60006020828403121561065657600080fd5b5051919050565b60006020828403121561066f57600080fd5b815180151581146105ec57600080fdfea264697066735822122024fac570729900aa621f9df9b393b8e33c8894144501c42a8801813c32ad906564736f6c63430008190033","linkReferences":{}},"methodIdentifiers":{"approveUpdate(bytes32)":"246f03ea","getPendingUpdate(bytes32)":"b653f795","initiateUpdate(address,bytes32)":"3fda6ebb","isApproved(bytes32)":"48aefc32","pendingUpdates(bytes32)":"d45548a9","roleManager()":"00435da5"},"id":31}