{"abi":[{"type":"constructor","inputs":[{"name":"_roleManager","type":"address","internalType":"address"},{"name":"_updateApproval","type":"address","internalType":"address"},{"name":"_temporaryAccess","type":"address","internalType":"address"}],"stateMutability":"nonpayable"},{"type":"function","name":"getAnonymizedRecords","inputs":[{"name":"_patient","type":"address","internalType":"address"}],"outputs":[{"name":"","type":"uint256[]","internalType":"uint256[]"}],"stateMutability":"view"},{"type":"function","name":"getBuilderRecords","inputs":[{"name":"_patient","type":"address","internalType":"address"}],"outputs":[{"name":"","type":"uint256[]","internalType":"uint256[]"}],"stateMutability":"view"},{"type":"function","name":"getRecordsDoctor","inputs":[{"name":"_patient","type":"address","internalType":"address"}],"outputs":[{"name":"","type":"string[]","internalType":"string[]"},{"name":"","type":"uint256[]","internalType":"uint256[]"}],"stateMutability":"view"},{"type":"function","name":"getRecordsPatient","inputs":[{"name":"_patient","type":"address","internalType":"address"}],"outputs":[{"name":"","type":"string[]","internalType":"string[]"},{"name":"","type":"uint256[]","internalType":"uint256[]"}],"stateMutability":"view"},{"type":"function","name":"initiateAddRecord","inputs":[{"name":"_patient","type":"address","internalType":"address"},{"name":"_dataHash","type":"string","internalType":"string"}],"outputs":[{"name":"","type":"bytes32","internalType":"bytes32"}],"stateMutability":"nonpayable"},{"type":"function","name":"initiateUpdate","inputs":[{"name":"_patient","type":"address","internalType":"address"},{"name":"_dataHash","type":"string","internalType":"string"}],"outputs":[{"name":"","type":"bytes32","internalType":"bytes32"}],"stateMutability":"nonpayable"},{"type":"function","name":"owner","inputs":[],"outputs":[{"name":"","type":"address","internalType":"address"}],"stateMutability":"view"},{"type":"function","name":"renounceOwnership","inputs":[],"outputs":[],"stateMutability":"nonpayable"},{"type":"function","name":"roleManager","inputs":[],"outputs":[{"name":"","type":"address","internalType":"contract RoleManager"}],"stateMutability":"view"},{"type":"function","name":"temporaryAccess","inputs":[],"outputs":[{"name":"","type":"address","internalType":"contract TemporaryAccess"}],"stateMutability":"view"},{"type":"function","name":"transferOwnership","inputs":[{"name":"newOwner","type":"address","internalType":"address"}],"outputs":[],"stateMutability":"nonpayable"},{"type":"function","name":"updateApproval","inputs":[],"outputs":[{"name":"","type":"address","internalType":"contract UpdateApproval"}],"stateMutability":"view"},{"type":"function","name":"updateData","inputs":[{"name":"_updateId","type":"bytes32","internalType":"bytes32"}],"outputs":[],"stateMutability":"nonpayable"},{"type":"event","name":"DataUpdateInitiated","inputs":[{"name":"patient","type":"address","indexed":true,"internalType":"address"},{"name":"initiator","type":"address","indexed":true,"internalType":"address"},{"name":"updateId","type":"bytes32","indexed":false,"internalType":"bytes32"}],"anonymous":false},{"type":"event","name":"DataUpdated","inputs":[{"name":"patient","type":"address","indexed":true,"internalType":"address"},{"name":"timestamp","type":"uint256","indexed":false,"internalType":"uint256"}],"anonymous":false},{"type":"event","name":"OwnershipTransferred","inputs":[{"name":"previousOwner","type":"address","indexed":true,"internalType":"address"},{"name":"newOwner","type":"address","indexed":true,"internalType":"address"}],"anonymous":false},{"type":"error","name":"InvalidDataHash","inputs":[]},{"type":"error","name":"NoTemporaryAccess","inputs":[]},{"type":"error","name":"NotAuthorized","inputs":[]},{"type":"error","name":"OwnableInvalidOwner","inputs":[{"name":"owner","type":"address","internalType":"address"}]},{"type":"error","name":"OwnableUnauthorizedAccount","inputs":[{"name":"account","type":"address","internalType":"address"}]},{"type":"error","name":"UpdateNotApproved","inputs":[]}],"bytecode":{"object":"0x60e060405234801561001057600080fd5b5060405161195038038061195083398101604081905261002f916100ef565b828282338061005857604051631e4fbdf760e01b81526000600482015260240160405180910390fd5b61006181610083565b506001600160a01b0392831660805290821660a0521660c05250610132915050565b600080546001600160a01b038381166001600160a01b0319831681178455604051919092169283917f8be0079c531659141344cd1fd0a4f28419497f9722a3daafe3b4186f6b6457e09190a35050565b80516001600160a01b03811681146100ea57600080fd5b919050565b60008060006060848603121561010457600080fd5b61010d846100d3565b925061011b602085016100d3565b9150610129604085016100d3565b90509250925092565b60805160a05160c0516117876101c9600039600081816101e5015281816106f601526108eb01526000818161021f0152818161098901528181610a200152610b6b01526000818160d80152818161024601528181610275015281816103b7015281816103e6015281816104fc0152818161052b0152818161059f015281816105ce0152818161079401526107c301526117876000f3fe608060405234801561001057600080fd5b50600436106100ce5760003560e01c80637ad7e6221161008c578063ea21da1c11610066578063ea21da1c146101cd578063f1abc2d3146101e0578063f2fde38b14610207578063f926197e1461021a57600080fd5b80637ad7e622146101965780638da5cb5b146101a9578063cdf7f8e6146101ba57600080fd5b8062435da5146100d357806307b3ed8c146101175780630e13692414610138578063635d571e14610158578063715018a61461016b578063735ff87e14610175575b600080fd5b6100fa7f000000000000000000000000000000000000000000000000000000000000000081565b6040516001600160a01b0390911681526020015b60405180910390f35b61012a6101253660046112e1565b610241565b60405161010e92919061135e565b61014b6101463660046112e1565b6103b3565b60405161010e91906113ec565b61014b6101663660046112e1565b6104f8565b610173610587565b005b610188610183366004611415565b61059b565b60405190815260200161010e565b61012a6101a43660046112e1565b61078f565b6000546001600160a01b03166100fa565b6101736101c83660046114d9565b610973565b6101886101db366004611415565b610b43565b6100fa7f000000000000000000000000000000000000000000000000000000000000000081565b6101736102153660046112e1565b610c8a565b6100fa7f000000000000000000000000000000000000000000000000000000000000000081565b6060807f00000000000000000000000000000000000000000000000000000000000000006001600160a01b03166391d148547f00000000000000000000000000000000000000000000000000000000000000006001600160a01b031663ac5cb97d6040518163ffffffff1660e01b8152600401602060405180830381865afa1580156102d1573d6000803e3d6000fd5b505050506040513d601f19601f820116820180604052508101906102f591906114f2565b6040516001600160e01b031960e084901b1681526004810191909152336024820152604401602060405180830381865afa158015610337573d6000803e3d6000fd5b505050506040513d601f19601f8201168201806040525081019061035b9190611520565b6103785760405163ea8e4eb560e01b815260040160405180910390fd5b336001600160a01b038416146103a15760405163ea8e4eb560e01b815260040160405180910390fd5b6103aa83610ccd565b91509150915091565b60607f00000000000000000000000000000000000000000000000000000000000000006001600160a01b03166391d148547f00000000000000000000000000000000000000000000000000000000000000006001600160a01b031663ce3d78d66040518163ffffffff1660e01b8152600401602060405180830381865afa158015610442573d6000803e3d6000fd5b505050506040513d601f19601f8201168201806040525081019061046691906114f2565b6040516001600160e01b031960e084901b1681526004810191909152336024820152604401602060405180830381865afa1580156104a8573d6000803e3d6000fd5b505050506040513d601f19601f820116820180604052508101906104cc9190611520565b6104e95760405163ea8e4eb560e01b815260040160405180910390fd5b6104f282610f1b565b92915050565b60607f00000000000000000000000000000000000000000000000000000000000000006001600160a01b03166391d148547f00000000000000000000000000000000000000000000000000000000000000006001600160a01b03166350f2aab36040518163ffffffff1660e01b8152600401602060405180830381865afa158015610442573d6000803e3d6000fd5b61058f6110c3565b61059960006110f0565b565b60007f00000000000000000000000000000000000000000000000000000000000000006001600160a01b03166391d148547f00000000000000000000000000000000000000000000000000000000000000006001600160a01b031663fec331f26040518163ffffffff1660e01b8152600401602060405180830381865afa15801561062a573d6000803e3d6000fd5b505050506040513d601f19601f8201168201806040525081019061064e91906114f2565b6040516001600160e01b031960e084901b1681526004810191909152336024820152604401602060405180830381865afa158015610690573d6000803e3d6000fd5b505050506040513d601f19601f820116820180604052508101906106b49190611520565b6106d15760405163ea8e4eb560e01b815260040160405180910390fd5b604051631709ef0760e01b81526001600160a01b0384811660048301523360248301527f00000000000000000000000000000000000000000000000000000000000000001690631709ef0790604401602060405180830381865afa15801561073d573d6000803e3d6000fd5b505050506040513d601f19601f820116820180604052508101906107619190611520565b61077e57604051630a48d08f60e01b815260040160405180910390fd5b6107888383610b43565b9392505050565b6060807f00000000000000000000000000000000000000000000000000000000000000006001600160a01b03166391d148547f00000000000000000000000000000000000000000000000000000000000000006001600160a01b031663fec331f26040518163ffffffff1660e01b8152600401602060405180830381865afa15801561081f573d6000803e3d6000fd5b505050506040513d601f19601f8201168201806040525081019061084391906114f2565b6040516001600160e01b031960e084901b1681526004810191909152336024820152604401602060405180830381865afa158015610885573d6000803e3d6000fd5b505050506040513d601f19601f820116820180604052508101906108a99190611520565b6108c65760405163ea8e4eb560e01b815260040160405180910390fd5b604051631709ef0760e01b81526001600160a01b0384811660048301523360248301527f00000000000000000000000000000000000000000000000000000000000000001690631709ef0790604401602060405180830381865afa158015610932573d6000803e3d6000fd5b505050506040513d601f19601f820116820180604052508101906109569190611520565b6103a157604051630a48d08f60e01b815260040160405180910390fd5b6040516324577e1960e11b8152600481018290527f00000000000000000000000000000000000000000000000000000000000000006001600160a01b0316906348aefc3290602401602060405180830381865afa1580156109d8573d6000803e3d6000fd5b505050506040513d601f19601f820116820180604052508101906109fc9190611520565b610a195760405163208fd29560e01b815260040160405180910390fd5b60008060007f00000000000000000000000000000000000000000000000000000000000000006001600160a01b031663b653f795856040518263ffffffff1660e01b8152600401610a6c91815260200190565b60c060405180830381865afa158015610a89573d6000803e3d6000fd5b505050506040513d601f19601f82011682018060405250810190610aad919061153b565b505050925092509250826001600160a01b0316336001600160a01b031614610ae85760405163ea8e4eb560e01b815260040160405180910390fd5b610afa82610af583611140565b611270565b816001600160a01b03167f8aa8bd4e43dc6bb61a5221865a01a65c13e1171dfe8c9ba47c09cf85c07435a142604051610b3591815260200190565b60405180910390a250505050565b60008151600003610b6757604051633b8f85f760e21b815260040160405180910390fd5b60007f00000000000000000000000000000000000000000000000000000000000000006001600160a01b0316633fda6ebb8585604051602001610baa91906115a7565b604051602081830303815290604052805190602001206040518363ffffffff1660e01b8152600401610bf19291906001600160a01b03929092168252602082015260400190565b6020604051808303816000875af1158015610c10573d6000803e3d6000fd5b505050506040513d601f19601f82011682018060405250810190610c3491906114f2565b9050336001600160a01b0316846001600160a01b03167fbdccc417c162f3dfde03c1b522239d245b23265f90ecd089610ac31923ad4c0383604051610c7b91815260200190565b60405180910390a39392505050565b610c926110c3565b6001600160a01b038116610cc157604051631e4fbdf760e01b8152600060048201526024015b60405180910390fd5b610cca816110f0565b50565b606080600060016000856001600160a01b03166001600160a01b03168152602001908152602001600020805480602002602001604051908101604052809291908181526020016000905b82821015610de55783829060005260206000209060020201604051806040016040529081600082018054610d4a906115c3565b80601f0160208091040260200160405190810160405280929190818152602001828054610d76906115c3565b8015610dc35780601f10610d9857610100808354040283529160200191610dc3565b820191906000526020600020905b815481529060010190602001808311610da657829003601f168201915b5050505050815260200160018201548152505081526020019060010190610d17565b5050505090506000815167ffffffffffffffff811115610e0757610e076113ff565b604051908082528060200260200182016040528015610e3a57816020015b6060815260200190600190039081610e255790505b5090506000825167ffffffffffffffff811115610e5957610e596113ff565b604051908082528060200260200182016040528015610e82578160200160208202803683370190505b50905060005b8351811015610f0f57838181518110610ea357610ea36115fd565b602002602001015160000151838281518110610ec157610ec16115fd565b6020026020010181905250838181518110610ede57610ede6115fd565b602002602001015160200151828281518110610efc57610efc6115fd565b6020908102919091010152600101610e88565b50909590945092505050565b6001600160a01b0381166000908152600160209081526040808320805482518185028101850190935280835260609493849084015b8282101561101e5783829060005260206000209060020201604051806040016040529081600082018054610f83906115c3565b80601f0160208091040260200160405190810160405280929190818152602001828054610faf906115c3565b8015610ffc5780601f10610fd157610100808354040283529160200191610ffc565b820191906000526020600020905b815481529060010190602001808311610fdf57829003601f168201915b5050505050815260200160018201548152505081526020019060010190610f50565b5050505090506000815167ffffffffffffffff811115611040576110406113ff565b604051908082528060200260200182016040528015611069578160200160208202803683370190505b50905060005b82518110156110bb5782818151811061108a5761108a6115fd565b6020026020010151602001518282815181106110a8576110a86115fd565b602090810291909101015260010161106f565b509392505050565b6000546001600160a01b031633146105995760405163118cdaa760e01b8152336004820152602401610cb8565b600080546001600160a01b038381166001600160a01b0319831681178455604051919092169283917f8be0079c531659141344cd1fd0a4f28419497f9722a3daafe3b4186f6b6457e09190a35050565b606060005b60208160ff161080156111795750828160ff1660208110611168576111686115fd565b1a60f81b6001600160f81b03191615155b15611190578061118881611613565b915050611145565b60008160ff1667ffffffffffffffff8111156111ae576111ae6113ff565b6040519080825280601f01601f1916602001820160405280156111d8576020820181803683370190505b509050600091505b60208260ff161080156112145750838260ff1660208110611203576112036115fd565b1a60f81b6001600160f81b03191615155b1561078857838260ff166020811061122e5761122e6115fd565b1a60f81b818360ff1681518110611247576112476115fd565b60200101906001600160f81b031916908160001a9053508161126881611613565b9250506111e0565b6001600160a01b038216600090815260016020818152604080842081518083019092528582524282840152805493840181558452922082516002909202019081906112bb9082611691565b506020820151816001015550505050565b6001600160a01b0381168114610cca57600080fd5b6000602082840312156112f357600080fd5b8135610788816112cc565b60005b83811015611319578181015183820152602001611301565b50506000910152565b60008151808452602080850194506020840160005b8381101561135357815187529582019590820190600101611337565b509495945050505050565b6000604082016040835280855180835260608501915060608160051b8601019250602080880160005b838110156113cd57878603605f19018552815180518088526113ae81868a018785016112fe565b601f01601f191696909601830195509382019390820190600101611387565b5050858403818701525050506113e38185611322565b95945050505050565b6020815260006107886020830184611322565b634e487b7160e01b600052604160045260246000fd5b6000806040838503121561142857600080fd5b8235611433816112cc565b9150602083013567ffffffffffffffff8082111561145057600080fd5b818501915085601f83011261146457600080fd5b813581811115611476576114766113ff565b604051601f8201601f19908116603f0116810190838211818310171561149e5761149e6113ff565b816040528281528860208487010111156114b757600080fd5b8260208601602083013760006020848301015280955050505050509250929050565b6000602082840312156114eb57600080fd5b5035919050565b60006020828403121561150457600080fd5b5051919050565b8051801515811461151b57600080fd5b919050565b60006020828403121561153257600080fd5b6107888261150b565b60008060008060008060c0878903121561155457600080fd5b865161155f816112cc565b6020880151909650611570816112cc565b604088015160608901519196509450925061158d6080880161150b565b915061159b60a0880161150b565b90509295509295509295565b600082516115b98184602087016112fe565b9190910192915050565b600181811c908216806115d757607f821691505b6020821081036115f757634e487b7160e01b600052602260045260246000fd5b50919050565b634e487b7160e01b600052603260045260246000fd5b600060ff821660ff810361163757634e487b7160e01b600052601160045260246000fd5b60010192915050565b601f82111561168c576000816000526020600020601f850160051c810160208610156116695750805b601f850160051c820191505b8181101561168857828155600101611675565b5050505b505050565b815167ffffffffffffffff8111156116ab576116ab6113ff565b6116bf816116b984546115c3565b84611640565b602080601f8311600181146116f457600084156116dc5750858301515b600019600386901b1c1916600185901b178555611688565b600085815260208120601f198616915b8281101561172357888601518255948401946001909101908401611704565b50858210156117415787850151600019600388901b60f8161c191681555b5050505050600190811b0190555056fea26469706673582212200d10654cacbcfa9156e2e198919e8b0f147fd1a468f29b05dad0095ce683e8b864736f6c63430008190033","linkReferences":{}},"methodIdentifiers":{"getAnonymizedRecords(address)":"635d571e","getBuilderRecords(address)":"0e136924","getRecordsDoctor(address)":"7ad7e622","getRecordsPatient(address)":"07b3ed8c","initiateAddRecord(address,string)":"735ff87e","initiateUpdate(address,string)":"ea21da1c","owner()":"8da5cb5b","renounceOwnership()":"715018a6","roleManager()":"00435da5","temporaryAccess()":"f1abc2d3","transferOwnership(address)":"f2fde38b","updateApproval()":"f926197e","updateData(bytes32)":"cdf7f8e6"},"id":30}