{
  "abi": [
    {
      "type": "constructor",
      "inputs": [],
      "stateMutability": "nonpayable"
    },
    {
      "type": "function",
      "name": "ADMIN_ROLE",
      "inputs": [],
      "outputs": [
        {
          "name": "",
          "type": "bytes32",
          "internalType": "bytes32"
        }
      ],
      "stateMutability": "view"
    },
    {
      "type": "function",
      "name": "BUILDER_ROLE",
      "inputs": [],
      "outputs": [
        {
          "name": "",
          "type": "bytes32",
          "internalType": "bytes32"
        }
      ],
      "stateMutability": "view"
    },
    {
      "type": "function",
      "name": "DEFAULT_ADMIN_ROLE",
      "inputs": [],
      "outputs": [
        {
          "name": "",
          "type": "bytes32",
          "internalType": "bytes32"
        }
      ],
      "stateMutability": "view"
    },
    {
      "type": "function",
      "name": "DOCTOR_ROLE",
      "inputs": [],
      "outputs": [
        {
          "name": "",
          "type": "bytes32",
          "internalType": "bytes32"
        }
      ],
      "stateMutability": "view"
    },
    {
      "type": "function",
      "name": "PATIENT_ROLE",
      "inputs": [],
      "outputs": [
        {
          "name": "",
          "type": "bytes32",
          "internalType": "bytes32"
        }
      ],
      "stateMutability": "view"
    },
    {
      "type": "function",
      "name": "RESEARCHER_ROLE",
      "inputs": [],
      "outputs": [
        {
          "name": "",
          "type": "bytes32",
          "internalType": "bytes32"
        }
      ],
      "stateMutability": "view"
    },
    {
      "type": "function",
      "name": "getBuilderRole",
      "inputs": [],
      "outputs": [
        {
          "name": "",
          "type": "bytes32",
          "internalType": "bytes32"
        }
      ],
      "stateMutability": "pure"
    },
    {
      "type": "function",
      "name": "getDoctorRole",
      "inputs": [],
      "outputs": [
        {
          "name": "",
          "type": "bytes32",
          "internalType": "bytes32"
        }
      ],
      "stateMutability": "pure"
    },
    {
      "type": "function",
      "name": "getPatientRole",
      "inputs": [],
      "outputs": [
        {
          "name": "",
          "type": "bytes32",
          "internalType": "bytes32"
        }
      ],
      "stateMutability": "pure"
    },
    {
      "type": "function",
      "name": "getResearcherRole",
      "inputs": [],
      "outputs": [
        {
          "name": "",
          "type": "bytes32",
          "internalType": "bytes32"
        }
      ],
      "stateMutability": "pure"
    },
    {
      "type": "function",
      "name": "getRoleAdmin",
      "inputs": [
        {
          "name": "role",
          "type": "bytes32",
          "internalType": "bytes32"
        }
      ],
      "outputs": [
        {
          "name": "",
          "type": "bytes32",
          "internalType": "bytes32"
        }
      ],
      "stateMutability": "view"
    },
    {
      "type": "function",
      "name": "grantRole",
      "inputs": [
        {
          "name": "role",
          "type": "bytes32",
          "internalType": "bytes32"
        },
        {
          "name": "account",
          "type": "address",
          "internalType": "address"
        }
      ],
      "outputs": [],
      "stateMutability": "nonpayable"
    },
    {
      "type": "function",
      "name": "hasRole",
      "inputs": [
        {
          "name": "role",
          "type": "bytes32",
          "internalType": "bytes32"
        },
        {
          "name": "account",
          "type": "address",
          "internalType": "address"
        }
      ],
      "outputs": [
        {
          "name": "",
          "type": "bool",
          "internalType": "bool"
        }
      ],
      "stateMutability": "view"
    },
    {
      "type": "function",
      "name": "isVerified",
      "inputs": [
        {
          "name": "role",
          "type": "bytes32",
          "internalType": "bytes32"
        },
        {
          "name": "account",
          "type": "address",
          "internalType": "address"
        }
      ],
      "outputs": [
        {
          "name": "",
          "type": "bool",
          "internalType": "bool"
        }
      ],
      "stateMutability": "view"
    },
    {
      "type": "function",
      "name": "renounceRole",
      "inputs": [
        {
          "name": "role",
          "type": "bytes32",
          "internalType": "bytes32"
        },
        {
          "name": "callerConfirmation",
          "type": "address",
          "internalType": "address"
        }
      ],
      "outputs": [],
      "stateMutability": "nonpayable"
    },
    {
      "type": "function",
      "name": "revokeRole",
      "inputs": [
        {
          "name": "role",
          "type": "bytes32",
          "internalType": "bytes32"
        },
        {
          "name": "account",
          "type": "address",
          "internalType": "address"
        }
      ],
      "outputs": [],
      "stateMutability": "nonpayable"
    },
    {
      "type": "function",
      "name": "supportsInterface",
      "inputs": [
        {
          "name": "interfaceId",
          "type": "bytes4",
          "internalType": "bytes4"
        }
      ],
      "outputs": [
        {
          "name": "",
          "type": "bool",
          "internalType": "bool"
        }
      ],
      "stateMutability": "view"
    },
    {
      "type": "function",
      "name": "unverifyAddress",
      "inputs": [
        {
          "name": "role",
          "type": "bytes32",
          "internalType": "bytes32"
        },
        {
          "name": "account",
          "type": "address",
          "internalType": "address"
        }
      ],
      "outputs": [],
      "stateMutability": "nonpayable"
    },
    {
      "type": "function",
      "name": "verifyAddress",
      "inputs": [
        {
          "name": "role",
          "type": "bytes32",
          "internalType": "bytes32"
        },
        {
          "name": "account",
          "type": "address",
          "internalType": "address"
        }
      ],
      "outputs": [],
      "stateMutability": "nonpayable"
    },
    {
      "type": "event",
      "name": "AddressUnverified",
      "inputs": [
        {
          "name": "role",
          "type": "bytes32",
          "indexed": true,
          "internalType": "bytes32"
        },
        {
          "name": "account",
          "type": "address",
          "indexed": true,
          "internalType": "address"
        }
      ],
      "anonymous": false
    },
    {
      "type": "event",
      "name": "AddressVerified",
      "inputs": [
        {
          "name": "role",
          "type": "bytes32",
          "indexed": true,
          "internalType": "bytes32"
        },
        {
          "name": "account",
          "type": "address",
          "indexed": true,
          "internalType": "address"
        }
      ],
      "anonymous": false
    },
    {
      "type": "event",
      "name": "RoleAdminChanged",
      "inputs": [
        {
          "name": "role",
          "type": "bytes32",
          "indexed": true,
          "internalType": "bytes32"
        },
        {
          "name": "previousAdminRole",
          "type": "bytes32",
          "indexed": true,
          "internalType": "bytes32"
        },
        {
          "name": "newAdminRole",
          "type": "bytes32",
          "indexed": true,
          "internalType": "bytes32"
        }
      ],
      "anonymous": false
    },
    {
      "type": "event",
      "name": "RoleGranted",
      "inputs": [
        {
          "name": "role",
          "type": "bytes32",
          "indexed": true,
          "internalType": "bytes32"
        },
        {
          "name": "account",
          "type": "address",
          "indexed": true,
          "internalType": "address"
        },
        {
          "name": "sender",
          "type": "address",
          "indexed": true,
          "internalType": "address"
        }
      ],
      "anonymous": false
    },
    {
      "type": "event",
      "name": "RoleRevoked",
      "inputs": [
        {
          "name": "role",
          "type": "bytes32",
          "indexed": true,
          "internalType": "bytes32"
        },
        {
          "name": "account",
          "type": "address",
          "indexed": true,
          "internalType": "address"
        },
        {
          "name": "sender",
          "type": "address",
          "indexed": true,
          "internalType": "address"
        }
      ],
      "anonymous": false
    },
    {
      "type": "error",
      "name": "AccessControlBadConfirmation",
      "inputs": []
    },
    {
      "type": "error",
      "name": "AccessControlUnauthorizedAccount",
      "inputs": [
        {
          "name": "account",
          "type": "address",
          "internalType": "address"
        },
        {
          "name": "neededRole",
          "type": "bytes32",
          "internalType": "bytes32"
        }
      ]
    },
    {
      "type": "error",
      "name": "AddressAlreadyVerified",
      "inputs": []
    },
    {
      "type": "error",
      "name": "AddressNotVerified",
      "inputs": []
    }
  ],
  "bytecode": {
    "object": "0x6080604052348015600f57600080fd5b506019600033601e565b5060c7565b6000828152602081815260408083206001600160a01b038516845290915281205460ff1660bd576000838152602081815260408083206001600160a01b03861684529091529020805460ff1916600117905560763390565b6001600160a01b0316826001600160a01b0316847f2f8788117e7eff1d82e926ec794901d17c78024a50270940304540a733656f0d60405160405180910390a450600160c1565b5060005b92915050565b61079b806100d66000396000f3fe608060405234801561001057600080fd5b50600436106101215760003560e01c806391d14854116100ad578063ce3d78d611610071578063ce3d78d6146102ca578063d547741f146102f1578063e403a3f614610304578063f57f2dc014610317578063fec331f21461033d57600080fd5b806391d1485414610231578063a217fddf14610203578063ac5cb97d14610244578063bc4912681461026b578063bf9fb97f1461029157600080fd5b80632f2ff15d116100f45780632f2ff15d146101b657806336568abe146101c957806350f2aab3146101dc57806375b238fc14610203578063849eb7221461020b57600080fd5b806301ffc9a71461012657806305e3425f1461014e5780631a89ce7914610163578063248a9ca314610193575b600080fd5b6101396101343660046106df565b610364565b60405190151581526020015b60405180910390f35b61016161015c366004610710565b61039b565b005b7f7ac30656051904e06bc0ef5fc0aa1a3334e6d6824b83fe5f4a7dd1b39218ba285b604051908152602001610145565b6101856101a136600461074c565b60009081526020819052604090206001015490565b6101616101c4366004610710565b610442565b6101616101d7366004610710565b61046d565b6101857fdfdf2b841d0cbc21071a9d98f0c6e4896c80bf338d769ddf545f871d7af9ef1181565b610185600081565b7fdc3b9d7fd28cfc7a70a999f2eb4b60672e6b88c8ed3280f4fb467b501b62b92e610185565b61013961023f366004610710565b6104a5565b6101857fdc3b9d7fd28cfc7a70a999f2eb4b60672e6b88c8ed3280f4fb467b501b62b92e81565b7fdfdf2b841d0cbc21071a9d98f0c6e4896c80bf338d769ddf545f871d7af9ef11610185565b61013961029f366004610710565b60009182526001602090815260408084206001600160a01b0393909316845291905290205460ff1690565b6101857f7ac30656051904e06bc0ef5fc0aa1a3334e6d6824b83fe5f4a7dd1b39218ba2881565b6101616102ff366004610710565b6104ce565b610161610312366004610710565b6104f3565b7fec03945fa2196716a09674e2cd6a57153479ecb05ea91e189e2688f793ab5381610185565b6101857fec03945fa2196716a09674e2cd6a57153479ecb05ea91e189e2688f793ab538181565b60006001600160e01b03198216637965db0b60e01b148061039557506301ffc9a760e01b6001600160e01b03198316145b92915050565b60006103a681610594565b60008381526001602090815260408083206001600160a01b038616845290915290205460ff166103e95760405163209d285360e01b815260040160405180910390fd5b60008381526001602090815260408083206001600160a01b0386168085529252808320805460ff1916905551909185917fb9287755f7ae96fd76abd9d374c8ff330a7c555d53849996b81018878e77ddec9190a3505050565b60008281526020819052604090206001015461045d81610594565b61046783836105a1565b50505050565b6001600160a01b03811633146104965760405163334bd91960e11b815260040160405180910390fd5b6104a08282610633565b505050565b6000918252602082815260408084206001600160a01b0393909316845291905290205460ff1690565b6000828152602081905260409020600101546104e981610594565b6104678383610633565b60008281526001602090815260408083206001600160a01b038516845290915290205460ff1615610537576040516332b9621d60e01b815260040160405180910390fd5b60008281526001602081815260408084206001600160a01b0386168086529252808420805460ff19169093179092559051909184917f1353421a36e407ea0bcc8250922eb1540d98dad2af2c79f094e8986bffb97e849190a35050565b61059e813361069e565b50565b60006105ad83836104a5565b61062b576000838152602081815260408083206001600160a01b03861684529091529020805460ff191660011790556105e33390565b6001600160a01b0316826001600160a01b0316847f2f8788117e7eff1d82e926ec794901d17c78024a50270940304540a733656f0d60405160405180910390a4506001610395565b506000610395565b600061063f83836104a5565b1561062b576000838152602081815260408083206001600160a01b0386168085529252808320805460ff1916905551339286917ff6391f5c32d9c69d2a47ea670b442974b53935d1edc7fd64eb21e047a839171b9190a4506001610395565b6106a882826104a5565b6106db5760405163e2517d3f60e01b81526001600160a01b03821660048201526024810183905260440160405180910390fd5b5050565b6000602082840312156106f157600080fd5b81356001600160e01b03198116811461070957600080fd5b9392505050565b6000806040838503121561072357600080fd5b8235915060208301356001600160a01b038116811461074157600080fd5b809150509250929050565b60006020828403121561075e57600080fd5b503591905056fea264697066735822122045e1243a6f58599a64f9790ae2e30f2dd317ed89e43d807f944e6a6a9e11389c64736f6c63430008190033",
    "linkReferences": {}
  },
  "methodIdentifiers": {
    "ADMIN_ROLE()": "75b238fc",
    "BUILDER_ROLE()": "ce3d78d6",
    "DEFAULT_ADMIN_ROLE()": "a217fddf",
    "DOCTOR_ROLE()": "fec331f2",
    "PATIENT_ROLE()": "ac5cb97d",
    "RESEARCHER_ROLE()": "50f2aab3",
    "getBuilderRole()": "1a89ce79",
    "getDoctorRole()": "f57f2dc0",
    "getPatientRole()": "849eb722",
    "getResearcherRole()": "bc491268",
    "getRoleAdmin(bytes32)": "248a9ca3",
    "grantRole(bytes32,address)": "2f2ff15d",
    "hasRole(bytes32,address)": "91d14854",
    "isVerified(bytes32,address)": "bf9fb97f",
    "renounceRole(bytes32,address)": "36568abe",
    "revokeRole(bytes32,address)": "d547741f",
    "supportsInterface(bytes4)": "01ffc9a7",
    "unverifyAddress(bytes32,address)": "05e3425f",
    "verifyAddress(bytes32,address)": "e403a3f6"
  },
  "id": 32
}