{"abi":[{"type":"constructor","inputs":[],"stateMutability":"nonpayable"},{"type":"function","name":"allowance","inputs":[{"name":"owner","type":"address","internalType":"address"},{"name":"spender","type":"address","internalType":"address"}],"outputs":[{"name":"","type":"uint256","internalType":"uint256"}],"stateMutability":"view"},{"type":"function","name":"approve","inputs":[{"name":"spender","type":"address","internalType":"address"},{"name":"value","type":"uint256","internalType":"uint256"}],"outputs":[{"name":"","type":"bool","internalType":"bool"}],"stateMutability":"nonpayable"},{"type":"function","name":"balanceOf","inputs":[{"name":"account","type":"address","internalType":"address"}],"outputs":[{"name":"","type":"uint256","internalType":"uint256"}],"stateMutability":"view"},{"type":"function","name":"burn","inputs":[{"name":"amount","type":"uint256","internalType":"uint256"}],"outputs":[],"stateMutability":"nonpayable"},{"type":"function","name":"decimals","inputs":[],"outputs":[{"name":"","type":"uint8","internalType":"uint8"}],"stateMutability":"view"},{"type":"function","name":"maxSupply","inputs":[],"outputs":[{"name":"","type":"uint256","internalType":"uint256"}],"stateMutability":"pure"},{"type":"function","name":"mint","inputs":[{"name":"to","type":"address","internalType":"address"},{"name":"amount","type":"uint256","internalType":"uint256"}],"outputs":[],"stateMutability":"nonpayable"},{"type":"function","name":"name","inputs":[],"outputs":[{"name":"","type":"string","internalType":"string"}],"stateMutability":"view"},{"type":"function","name":"owner","inputs":[],"outputs":[{"name":"","type":"address","internalType":"address"}],"stateMutability":"view"},{"type":"function","name":"remainingMintableSupply","inputs":[],"outputs":[{"name":"","type":"uint256","internalType":"uint256"}],"stateMutability":"view"},{"type":"function","name":"renounceOwnership","inputs":[],"outputs":[],"stateMutability":"nonpayable"},{"type":"function","name":"symbol","inputs":[],"outputs":[{"name":"","type":"string","internalType":"string"}],"stateMutability":"view"},{"type":"function","name":"totalSupply","inputs":[],"outputs":[{"name":"","type":"uint256","internalType":"uint256"}],"stateMutability":"view"},{"type":"function","name":"transfer","inputs":[{"name":"to","type":"address","internalType":"address"},{"name":"value","type":"uint256","internalType":"uint256"}],"outputs":[{"name":"","type":"bool","internalType":"bool"}],"stateMutability":"nonpayable"},{"type":"function","name":"transferFrom","inputs":[{"name":"from","type":"address","internalType":"address"},{"name":"to","type":"address","internalType":"address"},{"name":"value","type":"uint256","internalType":"uint256"}],"outputs":[{"name":"","type":"bool","internalType":"bool"}],"stateMutability":"nonpayable"},{"type":"function","name":"transferOwnership","inputs":[{"name":"newOwner","type":"address","internalType":"address"}],"outputs":[],"stateMutability":"nonpayable"},{"type":"event","name":"Approval","inputs":[{"name":"owner","type":"address","indexed":true,"internalType":"address"},{"name":"spender","type":"address","indexed":true,"internalType":"address"},{"name":"value","type":"uint256","indexed":false,"internalType":"uint256"}],"anonymous":false},{"type":"event","name":"OwnershipTransferred","inputs":[{"name":"previousOwner","type":"address","indexed":true,"internalType":"address"},{"name":"newOwner","type":"address","indexed":true,"internalType":"address"}],"anonymous":false},{"type":"event","name":"TokensBurned","inputs":[{"name":"from","type":"address","indexed":true,"internalType":"address"},{"name":"amount","type":"uint256","indexed":false,"internalType":"uint256"}],"anonymous":false},{"type":"event","name":"TokensMinted","inputs":[{"name":"to","type":"address","indexed":true,"internalType":"address"},{"name":"amount","type":"uint256","indexed":false,"internalType":"uint256"}],"anonymous":false},{"type":"event","name":"Transfer","inputs":[{"name":"from","type":"address","indexed":true,"internalType":"address"},{"name":"to","type":"address","indexed":true,"internalType":"address"},{"name":"value","type":"uint256","indexed":false,"internalType":"uint256"}],"anonymous":false},{"type":"error","name":"ERC20InsufficientAllowance","inputs":[{"name":"spender","type":"address","internalType":"address"},{"name":"allowance","type":"uint256","internalType":"uint256"},{"name":"needed","type":"uint256","internalType":"uint256"}]},{"type":"error","name":"ERC20InsufficientBalance","inputs":[{"name":"sender","type":"address","internalType":"address"},{"name":"balance","type":"uint256","internalType":"uint256"},{"name":"needed","type":"uint256","internalType":"uint256"}]},{"type":"error","name":"ERC20InvalidApprover","inputs":[{"name":"approver","type":"address","internalType":"address"}]},{"type":"error","name":"ERC20InvalidReceiver","inputs":[{"name":"receiver","type":"address","internalType":"address"}]},{"type":"error","name":"ERC20InvalidSender","inputs":[{"name":"sender","type":"address","internalType":"address"}]},{"type":"error","name":"ERC20InvalidSpender","inputs":[{"name":"spender","type":"address","internalType":"address"}]},{"type":"error","name":"InvalidAmount","inputs":[]},{"type":"error","name":"NotAuthorized","inputs":[]},{"type":"error","name":"OwnableInvalidOwner","inputs":[{"name":"owner","type":"address","internalType":"address"}]},{"type":"error","name":"OwnableUnauthorizedAccount","inputs":[{"name":"account","type":"address","internalType":"address"}]}],"bytecode":{"object":"0x608060405234801561001057600080fd5b50336040518060400160405280600b81526020016a26b0b4b9b430aa37b5b2b760a91b815250604051806040016040528060048152602001634d53484160e01b8152508160039081610062919061031d565b50600461006f828261031d565b5050506001600160a01b0381166100a157604051631e4fbdf760e01b8152600060048201526024015b60405180910390fd5b6100aa816100c6565b506100c1336b019d971e4fe8401e74000000610118565b610403565b600580546001600160a01b038381166001600160a01b0319831681179093556040519116919082907f8be0079c531659141344cd1fd0a4f28419497f9722a3daafe3b4186f6b6457e090600090a35050565b6001600160a01b0382166101425760405163ec442f0560e01b815260006004820152602401610098565b61014e60008383610152565b5050565b6001600160a01b03831661017d57806002600082825461017291906103dc565b909155506101ef9050565b6001600160a01b038316600090815260208190526040902054818110156101d05760405163391434e360e21b81526001600160a01b03851660048201526024810182905260448101839052606401610098565b6001600160a01b03841660009081526020819052604090209082900390555b6001600160a01b03821661020b5760028054829003905561022a565b6001600160a01b03821660009081526020819052604090208054820190555b816001600160a01b0316836001600160a01b03167fddf252ad1be2c89b69c2b068fc378daa952ba7f163c4a11628f55a4df523b3ef8360405161026f91815260200190565b60405180910390a3505050565b634e487b7160e01b600052604160045260246000fd5b600181811c908216806102a657607f821691505b6020821081036102c657634e487b7160e01b600052602260045260246000fd5b50919050565b601f821115610318576000816000526020600020601f850160051c810160208610156102f55750805b601f850160051c820191505b8181101561031457828155600101610301565b5050505b505050565b81516001600160401b038111156103365761033661027c565b61034a816103448454610292565b846102cc565b602080601f83116001811461037f57600084156103675750858301515b600019600386901b1c1916600185901b178555610314565b600085815260208120601f198616915b828110156103ae5788860151825594840194600190910190840161038f565b50858210156103cc5787850151600019600388901b60f8161c191681555b5050505050600190811b01905550565b808201808211156103fd57634e487b7160e01b600052601160045260246000fd5b92915050565b610b15806104126000396000f3fe608060405234801561001057600080fd5b50600436106101005760003560e01c806370a0823111610097578063a9059cbb11610066578063a9059cbb146101fe578063d5abeb0114610211578063dd62ed3e14610223578063f2fde38b1461025c57600080fd5b806370a08231146101aa578063715018a6146101d35780638da5cb5b146101db57806395d89b41146101f657600080fd5b8063313ce567116100d3578063313ce5671461016b578063349f0b901461017a57806340c10f191461018257806342966c681461019757600080fd5b806306fdde0314610105578063095ea7b31461012357806318160ddd1461014657806323b872dd14610158575b600080fd5b61010d61026f565b60405161011a919061092a565b60405180910390f35b610136610131366004610995565b610301565b604051901515815260200161011a565b6002545b60405190815260200161011a565b6101366101663660046109bf565b61031b565b6040516012815260200161011a565b61014a61033f565b610195610190366004610995565b610365565b005b6101956101a53660046109fb565b610446565b61014a6101b8366004610a14565b6001600160a01b031660009081526020819052604090205490565b6101956104d9565b6005546040516001600160a01b03909116815260200161011a565b61010d6104ed565b61013661020c366004610995565b6104fc565b6b033b2e3c9fd0803ce800000061014a565b61014a610231366004610a36565b6001600160a01b03918216600090815260016020908152604080832093909416825291909152205490565b61019561026a366004610a14565b61050a565b60606003805461027e90610a69565b80601f01602080910402602001604051908101604052809291908181526020018280546102aa90610a69565b80156102f75780601f106102cc576101008083540402835291602001916102f7565b820191906000526020600020905b8154815290600101906020018083116102da57829003601f168201915b5050505050905090565b60003361030f81858561054d565b60019150505b92915050565b60003361032985828561055f565b6103348585856105dd565b506001949350505050565b600061034a60025490565b610360906b033b2e3c9fd0803ce8000000610ab9565b905090565b61036d61063c565b6001600160a01b0382166103945760405163162908e360e11b815260040160405180910390fd5b806000036103b55760405163162908e360e11b815260040160405180910390fd5b6b033b2e3c9fd0803ce8000000816103cc60025490565b6103d69190610acc565b11156103f55760405163162908e360e11b815260040160405180910390fd5b6103ff8282610669565b816001600160a01b03167f3f2c9d57c068687834f0de942a9babb9e5acab57d516d3480a3c16ee165a42738260405161043a91815260200190565b60405180910390a25050565b806000036104675760405163162908e360e11b815260040160405180910390fd5b336000908152602081905260409020548111156104975760405163162908e360e11b815260040160405180910390fd5b6104a133826106a3565b60405181815233907ffd38818f5291bf0bb3a2a48aadc06ba8757865d1dabd804585338aab3009dcb69060200160405180910390a250565b6104e161063c565b6104eb60006106d9565b565b60606004805461027e90610a69565b60003361030f8185856105dd565b61051261063c565b6001600160a01b03811661054157604051631e4fbdf760e01b8152600060048201526024015b60405180910390fd5b61054a816106d9565b50565b61055a838383600161072b565b505050565b6001600160a01b0383811660009081526001602090815260408083209386168352929052205460001981146105d757818110156105c857604051637dc7a0d960e11b81526001600160a01b03841660048201526024810182905260448101839052606401610538565b6105d78484848403600061072b565b50505050565b6001600160a01b03831661060757604051634b637e8f60e11b815260006004820152602401610538565b6001600160a01b0382166106315760405163ec442f0560e01b815260006004820152602401610538565b61055a838383610800565b6005546001600160a01b031633146104eb5760405163118cdaa760e01b8152336004820152602401610538565b6001600160a01b0382166106935760405163ec442f0560e01b815260006004820152602401610538565b61069f60008383610800565b5050565b6001600160a01b0382166106cd57604051634b637e8f60e11b815260006004820152602401610538565b61069f82600083610800565b600580546001600160a01b038381166001600160a01b0319831681179093556040519116919082907f8be0079c531659141344cd1fd0a4f28419497f9722a3daafe3b4186f6b6457e090600090a35050565b6001600160a01b0384166107555760405163e602df0560e01b815260006004820152602401610538565b6001600160a01b03831661077f57604051634a1406b160e11b815260006004820152602401610538565b6001600160a01b03808516600090815260016020908152604080832093871683529290522082905580156105d757826001600160a01b0316846001600160a01b03167f8c5be1e5ebec7d5bd14f71427d1e84f3dd0314c0f7b2291e5b200ac8c7c3b925846040516107f291815260200190565b60405180910390a350505050565b6001600160a01b03831661082b5780600260008282546108209190610acc565b9091555061089d9050565b6001600160a01b0383166000908152602081905260409020548181101561087e5760405163391434e360e21b81526001600160a01b03851660048201526024810182905260448101839052606401610538565b6001600160a01b03841660009081526020819052604090209082900390555b6001600160a01b0382166108b9576002805482900390556108d8565b6001600160a01b03821660009081526020819052604090208054820190555b816001600160a01b0316836001600160a01b03167fddf252ad1be2c89b69c2b068fc378daa952ba7f163c4a11628f55a4df523b3ef8360405161091d91815260200190565b60405180910390a3505050565b60006020808352835180602085015260005b818110156109585785810183015185820160400152820161093c565b506000604082860101526040601f19601f8301168501019250505092915050565b80356001600160a01b038116811461099057600080fd5b919050565b600080604083850312156109a857600080fd5b6109b183610979565b946020939093013593505050565b6000806000606084860312156109d457600080fd5b6109dd84610979565b92506109eb60208501610979565b9150604084013590509250925092565b600060208284031215610a0d57600080fd5b5035919050565b600060208284031215610a2657600080fd5b610a2f82610979565b9392505050565b60008060408385031215610a4957600080fd5b610a5283610979565b9150610a6060208401610979565b90509250929050565b600181811c90821680610a7d57607f821691505b602082108103610a9d57634e487b7160e01b600052602260045260246000fd5b50919050565b634e487b7160e01b600052601160045260246000fd5b8181038181111561031557610315610aa3565b8082018082111561031557610315610aa356fea2646970667358221220a9378e2ea925f0fd4ceb19cb3669da49b6f808e1aeaaa9d717f6f9850fbd100764736f6c63430008190033","linkReferences":{}},"methodIdentifiers":{"allowance(address,address)":"dd62ed3e","approve(address,uint256)":"095ea7b3","balanceOf(address)":"70a08231","burn(uint256)":"42966c68","decimals()":"313ce567","maxSupply()":"d5abeb01","mint(address,uint256)":"40c10f19","name()":"06fdde03","owner()":"8da5cb5b","remainingMintableSupply()":"349f0b90","renounceOwnership()":"715018a6","symbol()":"95d89b41","totalSupply()":"18160ddd","transfer(address,uint256)":"a9059cbb","transferFrom(address,address,uint256)":"23b872dd","transferOwnership(address)":"f2fde38b"},"id":25}