{"abi":[{"type":"constructor","inputs":[{"name":"_roleManager","type":"address","internalType":"address"},{"name":"_updateApproval","type":"address","internalType":"address"},{"name":"_temporaryAccess","type":"address","internalType":"address"}],"stateMutability":"nonpayable"},{"type":"function","name":"getAnonymizedHistory","inputs":[{"name":"_patient","type":"address","internalType":"address"}],"outputs":[{"name":"","type":"uint256","internalType":"uint256"}],"stateMutability":"view"},{"type":"function","name":"getBuilderHistory","inputs":[{"name":"_patient","type":"address","internalType":"address"}],"outputs":[{"name":"","type":"uint256","internalType":"uint256"}],"stateMutability":"view"},{"type":"function","name":"getHistoryDoctor","inputs":[{"name":"_patient","type":"address","internalType":"address"}],"outputs":[{"name":"","type":"string","internalType":"string"},{"name":"","type":"uint256","internalType":"uint256"}],"stateMutability":"view"},{"type":"function","name":"getHistoryPatient","inputs":[{"name":"_patient","type":"address","internalType":"address"}],"outputs":[{"name":"","type":"string","internalType":"string"},{"name":"","type":"uint256","internalType":"uint256"}],"stateMutability":"view"},{"type":"function","name":"initiateHistoryUpdate","inputs":[{"name":"_patient","type":"address","internalType":"address"},{"name":"_dataHash","type":"string","internalType":"string"}],"outputs":[{"name":"","type":"bytes32","internalType":"bytes32"}],"stateMutability":"nonpayable"},{"type":"function","name":"initiateUpdate","inputs":[{"name":"_patient","type":"address","internalType":"address"},{"name":"_dataHash","type":"string","internalType":"string"}],"outputs":[{"name":"","type":"bytes32","internalType":"bytes32"}],"stateMutability":"nonpayable"},{"type":"function","name":"owner","inputs":[],"outputs":[{"name":"","type":"address","internalType":"address"}],"stateMutability":"view"},{"type":"function","name":"renounceOwnership","inputs":[],"outputs":[],"stateMutability":"nonpayable"},{"type":"function","name":"roleManager","inputs":[],"outputs":[{"name":"","type":"address","internalType":"contract RoleManager"}],"stateMutability":"view"},{"type":"function","name":"temporaryAccess","inputs":[],"outputs":[{"name":"","type":"address","internalType":"contract TemporaryAccess"}],"stateMutability":"view"},{"type":"function","name":"transferOwnership","inputs":[{"name":"newOwner","type":"address","internalType":"address"}],"outputs":[],"stateMutability":"nonpayable"},{"type":"function","name":"updateApproval","inputs":[],"outputs":[{"name":"","type":"address","internalType":"contract UpdateApproval"}],"stateMutability":"view"},{"type":"function","name":"updateData","inputs":[{"name":"_updateId","type":"bytes32","internalType":"bytes32"}],"outputs":[],"stateMutability":"nonpayable"},{"type":"event","name":"DataUpdateInitiated","inputs":[{"name":"patient","type":"address","indexed":true,"internalType":"address"},{"name":"initiator","type":"address","indexed":true,"internalType":"address"},{"name":"updateId","type":"bytes32","indexed":false,"internalType":"bytes32"}],"anonymous":false},{"type":"event","name":"DataUpdated","inputs":[{"name":"patient","type":"address","indexed":true,"internalType":"address"},{"name":"timestamp","type":"uint256","indexed":false,"internalType":"uint256"}],"anonymous":false},{"type":"event","name":"OwnershipTransferred","inputs":[{"name":"previousOwner","type":"address","indexed":true,"internalType":"address"},{"name":"newOwner","type":"address","indexed":true,"internalType":"address"}],"anonymous":false},{"type":"error","name":"InvalidDataHash","inputs":[]},{"type":"error","name":"NoTemporaryAccess","inputs":[]},{"type":"error","name":"NotAuthorized","inputs":[]},{"type":"error","name":"OwnableInvalidOwner","inputs":[{"name":"owner","type":"address","internalType":"address"}]},{"type":"error","name":"OwnableUnauthorizedAccount","inputs":[{"name":"account","type":"address","internalType":"address"}]},{"type":"error","name":"UpdateNotApproved","inputs":[]}],"bytecode":{"object":"0x60e060405234801561001057600080fd5b5060405161156c38038061156c83398101604081905261002f916100ef565b828282338061005857604051631e4fbdf760e01b81526000600482015260240160405180910390fd5b61006181610083565b506001600160a01b0392831660805290821660a0521660c05250610132915050565b600080546001600160a01b038381166001600160a01b0319831681178455604051919092169283917f8be0079c531659141344cd1fd0a4f28419497f9722a3daafe3b4186f6b6457e09190a35050565b80516001600160a01b03811681146100ea57600080fd5b919050565b60008060006060848603121561010457600080fd5b61010d846100d3565b925061011b602085016100d3565b9150610129604085016100d3565b90509250925092565b60805160a05160c0516113a36101c9600039600081816101d8015281816104e7015261079801526000818161021201528181610a4b01528181610ae20152610c2d01526000818160d8015281816102380152818161026701528181610390015281816103bf01528181610641015281816106700152818161084b0152818161087a015281816109aa01526109d901526113a36000f3fe608060405234801561001057600080fd5b50600436106100ce5760003560e01c80638da5cb5b1161008c578063ea21da1c11610066578063ea21da1c146101c0578063f1abc2d3146101d3578063f2fde38b146101fa578063f926197e1461020d57600080fd5b80638da5cb5b146101895780638de081231461019a578063cdf7f8e6146101ad57600080fd5b8062435da5146100d357806317910635146101175780631cfffc72146101385780633769278614610159578063715018a61461016c5780638ccd08da14610176575b600080fd5b6100fa7f000000000000000000000000000000000000000000000000000000000000000081565b6040516001600160a01b0390911681526020015b60405180910390f35b61012a610125366004610f9f565b610234565b60405190815260200161010e565b61014b610146366004610f9f565b61038a565b60405161010e929190610fe0565b61012a610167366004611031565b61063d565b610174610831565b005b61014b610184366004610f9f565b610845565b6000546001600160a01b03166100fa565b61012a6101a8366004610f9f565b6109a6565b6101746101bb3660046110f5565b610a35565b61012a6101ce366004611031565b610c05565b6100fa7f000000000000000000000000000000000000000000000000000000000000000081565b610174610208366004610f9f565b610d4c565b6100fa7f000000000000000000000000000000000000000000000000000000000000000081565b60007f00000000000000000000000000000000000000000000000000000000000000006001600160a01b03166391d148547f00000000000000000000000000000000000000000000000000000000000000006001600160a01b03166350f2aab36040518163ffffffff1660e01b8152600401602060405180830381865afa1580156102c3573d6000803e3d6000fd5b505050506040513d601f19601f820116820180604052508101906102e7919061110e565b6040516001600160e01b031960e084901b1681526004810191909152336024820152604401602060405180830381865afa158015610329573d6000803e3d6000fd5b505050506040513d601f19601f8201168201806040525081019061034d919061113c565b61036a5760405163ea8e4eb560e01b815260040160405180910390fd5b506001600160a01b03166000908152600160208190526040909120015490565b606060007f00000000000000000000000000000000000000000000000000000000000000006001600160a01b03166391d148547f00000000000000000000000000000000000000000000000000000000000000006001600160a01b031663fec331f26040518163ffffffff1660e01b8152600401602060405180830381865afa15801561041b573d6000803e3d6000fd5b505050506040513d601f19601f8201168201806040525081019061043f919061110e565b6040516001600160e01b031960e084901b1681526004810191909152336024820152604401602060405180830381865afa158015610481573d6000803e3d6000fd5b505050506040513d601f19601f820116820180604052508101906104a5919061113c565b6104c25760405163ea8e4eb560e01b815260040160405180910390fd5b604051631709ef0760e01b81526001600160a01b0384811660048301523360248301527f00000000000000000000000000000000000000000000000000000000000000001690631709ef0790604401602060405180830381865afa15801561052e573d6000803e3d6000fd5b505050506040513d601f19601f82011682018060405250810190610552919061113c565b61056f57604051630a48d08f60e01b815260040160405180910390fd5b6001600160a01b038316600090815260016020526040808220815180830190925280548290829061059f90611157565b80601f01602080910402602001604051908101604052809291908181526020018280546105cb90611157565b80156106185780601f106105ed57610100808354040283529160200191610618565b820191906000526020600020905b8154815290600101906020018083116105fb57829003601f168201915b5050509183525050600191909101546020918201528151910151909590945092505050565b60007f00000000000000000000000000000000000000000000000000000000000000006001600160a01b03166391d148547f00000000000000000000000000000000000000000000000000000000000000006001600160a01b031663fec331f26040518163ffffffff1660e01b8152600401602060405180830381865afa1580156106cc573d6000803e3d6000fd5b505050506040513d601f19601f820116820180604052508101906106f0919061110e565b6040516001600160e01b031960e084901b1681526004810191909152336024820152604401602060405180830381865afa158015610732573d6000803e3d6000fd5b505050506040513d601f19601f82011682018060405250810190610756919061113c565b6107735760405163ea8e4eb560e01b815260040160405180910390fd5b604051631709ef0760e01b81526001600160a01b0384811660048301523360248301527f00000000000000000000000000000000000000000000000000000000000000001690631709ef0790604401602060405180830381865afa1580156107df573d6000803e3d6000fd5b505050506040513d601f19601f82011682018060405250810190610803919061113c565b61082057604051630a48d08f60e01b815260040160405180910390fd5b61082a8383610c05565b9392505050565b610839610d8f565b6108436000610dbc565b565b606060007f00000000000000000000000000000000000000000000000000000000000000006001600160a01b03166391d148547f00000000000000000000000000000000000000000000000000000000000000006001600160a01b031663ac5cb97d6040518163ffffffff1660e01b8152600401602060405180830381865afa1580156108d6573d6000803e3d6000fd5b505050506040513d601f19601f820116820180604052508101906108fa919061110e565b6040516001600160e01b031960e084901b1681526004810191909152336024820152604401602060405180830381865afa15801561093c573d6000803e3d6000fd5b505050506040513d601f19601f82011682018060405250810190610960919061113c565b61097d5760405163ea8e4eb560e01b815260040160405180910390fd5b336001600160a01b0384161461056f5760405163ea8e4eb560e01b815260040160405180910390fd5b60007f00000000000000000000000000000000000000000000000000000000000000006001600160a01b03166391d148547f00000000000000000000000000000000000000000000000000000000000000006001600160a01b031663ce3d78d66040518163ffffffff1660e01b8152600401602060405180830381865afa1580156102c3573d6000803e3d6000fd5b6040516324577e1960e11b8152600481018290527f00000000000000000000000000000000000000000000000000000000000000006001600160a01b0316906348aefc3290602401602060405180830381865afa158015610a9a573d6000803e3d6000fd5b505050506040513d601f19601f82011682018060405250810190610abe919061113c565b610adb5760405163208fd29560e01b815260040160405180910390fd5b60008060007f00000000000000000000000000000000000000000000000000000000000000006001600160a01b031663b653f795856040518263ffffffff1660e01b8152600401610b2e91815260200190565b60c060405180830381865afa158015610b4b573d6000803e3d6000fd5b505050506040513d601f19601f82011682018060405250810190610b6f9190611191565b505050925092509250826001600160a01b0316336001600160a01b031614610baa5760405163ea8e4eb560e01b815260040160405180910390fd5b610bbc82610bb783610e0c565b610f3c565b816001600160a01b03167f8aa8bd4e43dc6bb61a5221865a01a65c13e1171dfe8c9ba47c09cf85c07435a142604051610bf791815260200190565b60405180910390a250505050565b60008151600003610c2957604051633b8f85f760e21b815260040160405180910390fd5b60007f00000000000000000000000000000000000000000000000000000000000000006001600160a01b0316633fda6ebb8585604051602001610c6c91906111fd565b604051602081830303815290604052805190602001206040518363ffffffff1660e01b8152600401610cb39291906001600160a01b03929092168252602082015260400190565b6020604051808303816000875af1158015610cd2573d6000803e3d6000fd5b505050506040513d601f19601f82011682018060405250810190610cf6919061110e565b9050336001600160a01b0316846001600160a01b03167fbdccc417c162f3dfde03c1b522239d245b23265f90ecd089610ac31923ad4c0383604051610d3d91815260200190565b60405180910390a39392505050565b610d54610d8f565b6001600160a01b038116610d8357604051631e4fbdf760e01b8152600060048201526024015b60405180910390fd5b610d8c81610dbc565b50565b6000546001600160a01b031633146108435760405163118cdaa760e01b8152336004820152602401610d7a565b600080546001600160a01b038381166001600160a01b0319831681178455604051919092169283917f8be0079c531659141344cd1fd0a4f28419497f9722a3daafe3b4186f6b6457e09190a35050565b606060005b60208160ff16108015610e455750828160ff1660208110610e3457610e34611219565b1a60f81b6001600160f81b03191615155b15610e5c5780610e548161122f565b915050610e11565b60008160ff1667ffffffffffffffff811115610e7a57610e7a61101b565b6040519080825280601f01601f191660200182016040528015610ea4576020820181803683370190505b509050600091505b60208260ff16108015610ee05750838260ff1660208110610ecf57610ecf611219565b1a60f81b6001600160f81b03191615155b1561082a57838260ff1660208110610efa57610efa611219565b1a60f81b818360ff1681518110610f1357610f13611219565b60200101906001600160f81b031916908160001a90535081610f348161122f565b925050610eac565b604080518082018252828152426020808301919091526001600160a01b038516600090815260019091529190912081518190610f7890826112ad565b50602082015181600101559050505050565b6001600160a01b0381168114610d8c57600080fd5b600060208284031215610fb157600080fd5b813561082a81610f8a565b60005b83811015610fd7578181015183820152602001610fbf565b50506000910152565b6040815260008351806040840152610fff816060850160208801610fbc565b602083019390935250601f91909101601f191601606001919050565b634e487b7160e01b600052604160045260246000fd5b6000806040838503121561104457600080fd5b823561104f81610f8a565b9150602083013567ffffffffffffffff8082111561106c57600080fd5b818501915085601f83011261108057600080fd5b8135818111156110925761109261101b565b604051601f8201601f19908116603f011681019083821181831017156110ba576110ba61101b565b816040528281528860208487010111156110d357600080fd5b8260208601602083013760006020848301015280955050505050509250929050565b60006020828403121561110757600080fd5b5035919050565b60006020828403121561112057600080fd5b5051919050565b8051801515811461113757600080fd5b919050565b60006020828403121561114e57600080fd5b61082a82611127565b600181811c9082168061116b57607f821691505b60208210810361118b57634e487b7160e01b600052602260045260246000fd5b50919050565b60008060008060008060c087890312156111aa57600080fd5b86516111b581610f8a565b60208801519096506111c681610f8a565b60408801516060890151919650945092506111e360808801611127565b91506111f160a08801611127565b90509295509295509295565b6000825161120f818460208701610fbc565b9190910192915050565b634e487b7160e01b600052603260045260246000fd5b600060ff821660ff810361125357634e487b7160e01b600052601160045260246000fd5b60010192915050565b601f8211156112a8576000816000526020600020601f850160051c810160208610156112855750805b601f850160051c820191505b818110156112a457828155600101611291565b5050505b505050565b815167ffffffffffffffff8111156112c7576112c761101b565b6112db816112d58454611157565b8461125c565b602080601f83116001811461131057600084156112f85750858301515b600019600386901b1c1916600185901b1785556112a4565b600085815260208120601f198616915b8281101561133f57888601518255948401946001909101908401611320565b508582101561135d5787850151600019600388901b60f8161c191681555b5050505050600190811b0190555056fea26469706673582212200774013d4fcae19d2d322ee93cae48ebc998fea41b1d76b4a774544afc39651964736f6c63430008190033","linkReferences":{}},"methodIdentifiers":{"getAnonymizedHistory(address)":"17910635","getBuilderHistory(address)":"8de08123","getHistoryDoctor(address)":"1cfffc72","getHistoryPatient(address)":"8ccd08da","initiateHistoryUpdate(address,string)":"37692786","initiateUpdate(address,string)":"ea21da1c","owner()":"8da5cb5b","renounceOwnership()":"715018a6","roleManager()":"00435da5","temporaryAccess()":"f1abc2d3","transferOwnership(address)":"f2fde38b","updateApproval()":"f926197e","updateData(bytes32)":"cdf7f8e6"},"id":26}