{"abi":[{"type":"constructor","inputs":[{"name":"_roleManager","type":"address","internalType":"address"},{"name":"_updateApproval","type":"address","internalType":"address"},{"name":"_temporaryAccess","type":"address","internalType":"address"}],"stateMutability":"nonpayable"},{"type":"function","name":"getAnonymizedHealth","inputs":[{"name":"_patient","type":"address","internalType":"address"}],"outputs":[{"name":"","type":"uint256","internalType":"uint256"}],"stateMutability":"view"},{"type":"function","name":"getBuilderHealth","inputs":[{"name":"_patient","type":"address","internalType":"address"}],"outputs":[{"name":"","type":"uint256","internalType":"uint256"}],"stateMutability":"view"},{"type":"function","name":"getHealthDoctor","inputs":[{"name":"_patient","type":"address","internalType":"address"}],"outputs":[{"name":"","type":"string","internalType":"string"},{"name":"","type":"uint256","internalType":"uint256"}],"stateMutability":"view"},{"type":"function","name":"getHealthPatient","inputs":[{"name":"_patient","type":"address","internalType":"address"}],"outputs":[{"name":"","type":"string","internalType":"string"},{"name":"","type":"uint256","internalType":"uint256"}],"stateMutability":"view"},{"type":"function","name":"initiateHealthUpdate","inputs":[{"name":"_patient","type":"address","internalType":"address"},{"name":"_dataHash","type":"string","internalType":"string"}],"outputs":[{"name":"","type":"bytes32","internalType":"bytes32"}],"stateMutability":"nonpayable"},{"type":"function","name":"initiateUpdate","inputs":[{"name":"_patient","type":"address","internalType":"address"},{"name":"_dataHash","type":"string","internalType":"string"}],"outputs":[{"name":"","type":"bytes32","internalType":"bytes32"}],"stateMutability":"nonpayable"},{"type":"function","name":"owner","inputs":[],"outputs":[{"name":"","type":"address","internalType":"address"}],"stateMutability":"view"},{"type":"function","name":"renounceOwnership","inputs":[],"outputs":[],"stateMutability":"nonpayable"},{"type":"function","name":"roleManager","inputs":[],"outputs":[{"name":"","type":"address","internalType":"contract RoleManager"}],"stateMutability":"view"},{"type":"function","name":"temporaryAccess","inputs":[],"outputs":[{"name":"","type":"address","internalType":"contract TemporaryAccess"}],"stateMutability":"view"},{"type":"function","name":"transferOwnership","inputs":[{"name":"newOwner","type":"address","internalType":"address"}],"outputs":[],"stateMutability":"nonpayable"},{"type":"function","name":"updateApproval","inputs":[],"outputs":[{"name":"","type":"address","internalType":"contract UpdateApproval"}],"stateMutability":"view"},{"type":"function","name":"updateData","inputs":[{"name":"_updateId","type":"bytes32","internalType":"bytes32"}],"outputs":[],"stateMutability":"nonpayable"},{"type":"event","name":"DataUpdateInitiated","inputs":[{"name":"patient","type":"address","indexed":true,"internalType":"address"},{"name":"initiator","type":"address","indexed":true,"internalType":"address"},{"name":"updateId","type":"bytes32","indexed":false,"internalType":"bytes32"}],"anonymous":false},{"type":"event","name":"DataUpdated","inputs":[{"name":"patient","type":"address","indexed":true,"internalType":"address"},{"name":"timestamp","type":"uint256","indexed":false,"internalType":"uint256"}],"anonymous":false},{"type":"event","name":"OwnershipTransferred","inputs":[{"name":"previousOwner","type":"address","indexed":true,"internalType":"address"},{"name":"newOwner","type":"address","indexed":true,"internalType":"address"}],"anonymous":false},{"type":"error","name":"InvalidDataHash","inputs":[]},{"type":"error","name":"NoTemporaryAccess","inputs":[]},{"type":"error","name":"NotAuthorized","inputs":[]},{"type":"error","name":"OwnableInvalidOwner","inputs":[{"name":"owner","type":"address","internalType":"address"}]},{"type":"error","name":"OwnableUnauthorizedAccount","inputs":[{"name":"account","type":"address","internalType":"address"}]},{"type":"error","name":"UpdateNotApproved","inputs":[]}],"bytecode":{"object":"0x60e060405234801561001057600080fd5b5060405161156c38038061156c83398101604081905261002f916100ef565b828282338061005857604051631e4fbdf760e01b81526000600482015260240160405180910390fd5b61006181610083565b506001600160a01b0392831660805290821660a0521660c05250610132915050565b600080546001600160a01b038381166001600160a01b0319831681178455604051919092169283917f8be0079c531659141344cd1fd0a4f28419497f9722a3daafe3b4186f6b6457e09190a35050565b80516001600160a01b03811681146100ea57600080fd5b919050565b60008060006060848603121561010457600080fd5b61010d846100d3565b925061011b602085016100d3565b9150610129604085016100d3565b90509250925092565b60805160a05160c0516113a36101c9600039600081816101c50152818161075a0152610cf60152600081816101ff01528181610443015281816104da01526108d801526000818160d80152818161024c0152818161027b015281816103a2015281816103d10152818161060301528181610632015281816109fd01528181610a2c01528181610b9f0152610bce01526113a36000f3fe608060405234801561001057600080fd5b50600436106100ce5760003560e01c8063d7d9e1441161008c578063f1abc2d311610066578063f1abc2d3146101c0578063f2fde38b146101e7578063f926197e146101fa578063fe5b17051461022157600080fd5b8063d7d9e14414610179578063ea21da1c1461019a578063eb046d6f146101ad57600080fd5b8062435da5146100d3578063715018a61461011757806376e96f01146101215780638da5cb5b146101425780639b98f61514610153578063cdf7f8e614610166575b600080fd5b6100fa7f000000000000000000000000000000000000000000000000000000000000000081565b6040516001600160a01b0390911681526020015b60405180910390f35b61011f610234565b005b61013461012f366004610f9f565b610248565b60405190815260200161010e565b6000546001600160a01b03166100fa565b610134610161366004610f9f565b61039e565b61011f610174366004610fbc565b61042d565b61018c610187366004610f9f565b6105fd565b60405161010e929190610ff9565b6101346101a836600461104a565b6108b0565b61018c6101bb366004610f9f565b6109f7565b6100fa7f000000000000000000000000000000000000000000000000000000000000000081565b61011f6101f5366004610f9f565b610b58565b6100fa7f000000000000000000000000000000000000000000000000000000000000000081565b61013461022f36600461104a565b610b9b565b61023c610d8f565b6102466000610dbc565b565b60007f00000000000000000000000000000000000000000000000000000000000000006001600160a01b03166391d148547f00000000000000000000000000000000000000000000000000000000000000006001600160a01b031663ce3d78d66040518163ffffffff1660e01b8152600401602060405180830381865afa1580156102d7573d6000803e3d6000fd5b505050506040513d601f19601f820116820180604052508101906102fb919061110e565b6040516001600160e01b031960e084901b1681526004810191909152336024820152604401602060405180830381865afa15801561033d573d6000803e3d6000fd5b505050506040513d601f19601f82011682018060405250810190610361919061113c565b61037e5760405163ea8e4eb560e01b815260040160405180910390fd5b506001600160a01b03166000908152600160208190526040909120015490565b60007f00000000000000000000000000000000000000000000000000000000000000006001600160a01b03166391d148547f00000000000000000000000000000000000000000000000000000000000000006001600160a01b03166350f2aab36040518163ffffffff1660e01b8152600401602060405180830381865afa1580156102d7573d6000803e3d6000fd5b6040516324577e1960e11b8152600481018290527f00000000000000000000000000000000000000000000000000000000000000006001600160a01b0316906348aefc3290602401602060405180830381865afa158015610492573d6000803e3d6000fd5b505050506040513d601f19601f820116820180604052508101906104b6919061113c565b6104d35760405163208fd29560e01b815260040160405180910390fd5b60008060007f00000000000000000000000000000000000000000000000000000000000000006001600160a01b031663b653f795856040518263ffffffff1660e01b815260040161052691815260200190565b60c060405180830381865afa158015610543573d6000803e3d6000fd5b505050506040513d601f19601f820116820180604052508101906105679190611157565b505050925092509250826001600160a01b0316336001600160a01b0316146105a25760405163ea8e4eb560e01b815260040160405180910390fd5b6105b4826105af83610e0c565b610f3c565b816001600160a01b03167f8aa8bd4e43dc6bb61a5221865a01a65c13e1171dfe8c9ba47c09cf85c07435a1426040516105ef91815260200190565b60405180910390a250505050565b606060007f00000000000000000000000000000000000000000000000000000000000000006001600160a01b03166391d148547f00000000000000000000000000000000000000000000000000000000000000006001600160a01b031663fec331f26040518163ffffffff1660e01b8152600401602060405180830381865afa15801561068e573d6000803e3d6000fd5b505050506040513d601f19601f820116820180604052508101906106b2919061110e565b6040516001600160e01b031960e084901b1681526004810191909152336024820152604401602060405180830381865afa1580156106f4573d6000803e3d6000fd5b505050506040513d601f19601f82011682018060405250810190610718919061113c565b6107355760405163ea8e4eb560e01b815260040160405180910390fd5b604051631709ef0760e01b81526001600160a01b0384811660048301523360248301527f00000000000000000000000000000000000000000000000000000000000000001690631709ef0790604401602060405180830381865afa1580156107a1573d6000803e3d6000fd5b505050506040513d601f19601f820116820180604052508101906107c5919061113c565b6107e257604051630a48d08f60e01b815260040160405180910390fd5b6001600160a01b0383166000908152600160205260408082208151808301909252805482908290610812906111c3565b80601f016020809104026020016040519081016040528092919081815260200182805461083e906111c3565b801561088b5780601f106108605761010080835404028352916020019161088b565b820191906000526020600020905b81548152906001019060200180831161086e57829003601f168201915b5050509183525050600191909101546020918201528151910151909590945092505050565b600081516000036108d457604051633b8f85f760e21b815260040160405180910390fd5b60007f00000000000000000000000000000000000000000000000000000000000000006001600160a01b0316633fda6ebb858560405160200161091791906111fd565b604051602081830303815290604052805190602001206040518363ffffffff1660e01b815260040161095e9291906001600160a01b03929092168252602082015260400190565b6020604051808303816000875af115801561097d573d6000803e3d6000fd5b505050506040513d601f19601f820116820180604052508101906109a1919061110e565b9050336001600160a01b0316846001600160a01b03167fbdccc417c162f3dfde03c1b522239d245b23265f90ecd089610ac31923ad4c03836040516109e891815260200190565b60405180910390a39392505050565b606060007f00000000000000000000000000000000000000000000000000000000000000006001600160a01b03166391d148547f00000000000000000000000000000000000000000000000000000000000000006001600160a01b031663ac5cb97d6040518163ffffffff1660e01b8152600401602060405180830381865afa158015610a88573d6000803e3d6000fd5b505050506040513d601f19601f82011682018060405250810190610aac919061110e565b6040516001600160e01b031960e084901b1681526004810191909152336024820152604401602060405180830381865afa158015610aee573d6000803e3d6000fd5b505050506040513d601f19601f82011682018060405250810190610b12919061113c565b610b2f5760405163ea8e4eb560e01b815260040160405180910390fd5b336001600160a01b038416146107e25760405163ea8e4eb560e01b815260040160405180910390fd5b610b60610d8f565b6001600160a01b038116610b8f57604051631e4fbdf760e01b8152600060048201526024015b60405180910390fd5b610b9881610dbc565b50565b60007f00000000000000000000000000000000000000000000000000000000000000006001600160a01b03166391d148547f00000000000000000000000000000000000000000000000000000000000000006001600160a01b031663fec331f26040518163ffffffff1660e01b8152600401602060405180830381865afa158015610c2a573d6000803e3d6000fd5b505050506040513d601f19601f82011682018060405250810190610c4e919061110e565b6040516001600160e01b031960e084901b1681526004810191909152336024820152604401602060405180830381865afa158015610c90573d6000803e3d6000fd5b505050506040513d601f19601f82011682018060405250810190610cb4919061113c565b610cd15760405163ea8e4eb560e01b815260040160405180910390fd5b604051631709ef0760e01b81526001600160a01b0384811660048301523360248301527f00000000000000000000000000000000000000000000000000000000000000001690631709ef0790604401602060405180830381865afa158015610d3d573d6000803e3d6000fd5b505050506040513d601f19601f82011682018060405250810190610d61919061113c565b610d7e57604051630a48d08f60e01b815260040160405180910390fd5b610d8883836108b0565b9392505050565b6000546001600160a01b031633146102465760405163118cdaa760e01b8152336004820152602401610b86565b600080546001600160a01b038381166001600160a01b0319831681178455604051919092169283917f8be0079c531659141344cd1fd0a4f28419497f9722a3daafe3b4186f6b6457e09190a35050565b606060005b60208160ff16108015610e455750828160ff1660208110610e3457610e34611219565b1a60f81b6001600160f81b03191615155b15610e5c5780610e548161122f565b915050610e11565b60008160ff1667ffffffffffffffff811115610e7a57610e7a611034565b6040519080825280601f01601f191660200182016040528015610ea4576020820181803683370190505b509050600091505b60208260ff16108015610ee05750838260ff1660208110610ecf57610ecf611219565b1a60f81b6001600160f81b03191615155b15610d8857838260ff1660208110610efa57610efa611219565b1a60f81b818360ff1681518110610f1357610f13611219565b60200101906001600160f81b031916908160001a90535081610f348161122f565b925050610eac565b604080518082018252828152426020808301919091526001600160a01b038516600090815260019091529190912081518190610f7890826112ad565b50602082015181600101559050505050565b6001600160a01b0381168114610b9857600080fd5b600060208284031215610fb157600080fd5b8135610d8881610f8a565b600060208284031215610fce57600080fd5b5035919050565b60005b83811015610ff0578181015183820152602001610fd8565b50506000910152565b6040815260008351806040840152611018816060850160208801610fd5565b602083019390935250601f91909101601f191601606001919050565b634e487b7160e01b600052604160045260246000fd5b6000806040838503121561105d57600080fd5b823561106881610f8a565b9150602083013567ffffffffffffffff8082111561108557600080fd5b818501915085601f83011261109957600080fd5b8135818111156110ab576110ab611034565b604051601f8201601f19908116603f011681019083821181831017156110d3576110d3611034565b816040528281528860208487010111156110ec57600080fd5b8260208601602083013760006020848301015280955050505050509250929050565b60006020828403121561112057600080fd5b5051919050565b8051801515811461113757600080fd5b919050565b60006020828403121561114e57600080fd5b610d8882611127565b60008060008060008060c0878903121561117057600080fd5b865161117b81610f8a565b602088015190965061118c81610f8a565b60408801516060890151919650945092506111a960808801611127565b91506111b760a08801611127565b90509295509295509295565b600181811c908216806111d757607f821691505b6020821081036111f757634e487b7160e01b600052602260045260246000fd5b50919050565b6000825161120f818460208701610fd5565b9190910192915050565b634e487b7160e01b600052603260045260246000fd5b600060ff821660ff810361125357634e487b7160e01b600052601160045260246000fd5b60010192915050565b601f8211156112a8576000816000526020600020601f850160051c810160208610156112855750805b601f850160051c820191505b818110156112a457828155600101611291565b5050505b505050565b815167ffffffffffffffff8111156112c7576112c7611034565b6112db816112d584546111c3565b8461125c565b602080601f83116001811461131057600084156112f85750858301515b600019600386901b1c1916600185901b1785556112a4565b600085815260208120601f198616915b8281101561133f57888601518255948401946001909101908401611320565b508582101561135d5787850151600019600388901b60f8161c191681555b5050505050600190811b0190555056fea26469706673582212207c15ae888916cbc96673d5346d9911e1f35e3da5f8029f86f687a7bc674b262964736f6c63430008190033","linkReferences":{}},"methodIdentifiers":{"getAnonymizedHealth(address)":"9b98f615","getBuilderHealth(address)":"76e96f01","getHealthDoctor(address)":"d7d9e144","getHealthPatient(address)":"eb046d6f","initiateHealthUpdate(address,string)":"fe5b1705","initiateUpdate(address,string)":"ea21da1c","owner()":"8da5cb5b","renounceOwnership()":"715018a6","roleManager()":"00435da5","temporaryAccess()":"f1abc2d3","transferOwnership(address)":"f2fde38b","updateApproval()":"f926197e","updateData(bytes32)":"cdf7f8e6"},"id":23}